{
  "contractName": "BettingManager",
  "abi": [
    {
      "constant": false,
      "inputs": [
        {
          "name": "_matchId",
          "type": "uint256"
        }
      ],
      "name": "endMatch",
      "outputs": [],
      "payable": false,
      "stateMutability": "nonpayable",
      "type": "function"
    },
    {
      "constant": true,
      "inputs": [
        {
          "name": "",
          "type": "uint256"
        }
      ],
      "name": "matchIdToId",
      "outputs": [
        {
          "name": "",
          "type": "uint256"
        }
      ],
      "payable": false,
      "stateMutability": "view",
      "type": "function"
    },
    {
      "constant": false,
      "inputs": [
        {
          "name": "myid",
          "type": "bytes32"
        },
        {
          "name": "result",
          "type": "string"
        }
      ],
      "name": "__callback",
      "outputs": [],
      "payable": false,
      "stateMutability": "nonpayable",
      "type": "function"
    },
    {
      "constant": false,
      "inputs": [
        {
          "name": "myid",
          "type": "bytes32"
        },
        {
          "name": "result",
          "type": "string"
        },
        {
          "name": "proof",
          "type": "bytes"
        }
      ],
      "name": "__callback",
      "outputs": [],
      "payable": false,
      "stateMutability": "nonpayable",
      "type": "function"
    },
    {
      "constant": true,
      "inputs": [
        {
          "name": "",
          "type": "uint256"
        }
      ],
      "name": "matches",
      "outputs": [
        {
          "name": "matchId",
          "type": "uint256"
        },
        {
          "name": "poolPrice",
          "type": "uint256"
        },
        {
          "name": "radiantBets",
          "type": "uint256"
        },
        {
          "name": "direBets",
          "type": "uint256"
        },
        {
          "name": "radiantWin",
          "type": "bool"
        },
        {
          "name": "direWin",
          "type": "bool"
        },
        {
          "name": "withdrawable",
          "type": "bool"
        },
        {
          "name": "bettable",
          "type": "bool"
        },
        {
          "name": "refundable",
          "type": "bool"
        }
      ],
      "payable": false,
      "stateMutability": "view",
      "type": "function"
    },
    {
      "constant": false,
      "inputs": [
        {
          "name": "_matchId",
          "type": "uint256"
        }
      ],
      "name": "addMatch",
      "outputs": [],
      "payable": false,
      "stateMutability": "nonpayable",
      "type": "function"
    },
    {
      "constant": false,
      "inputs": [
        {
          "name": "_matchIdString",
          "type": "string"
        },
        {
          "name": "_matchIdUint",
          "type": "uint256"
        }
      ],
      "name": "getMatchWinner",
      "outputs": [],
      "payable": true,
      "stateMutability": "payable",
      "type": "function"
    },
    {
      "constant": false,
      "inputs": [],
      "name": "renounceOwnership",
      "outputs": [],
      "payable": false,
      "stateMutability": "nonpayable",
      "type": "function"
    },
    {
      "constant": true,
      "inputs": [],
      "name": "owner",
      "outputs": [
        {
          "name": "",
          "type": "address"
        }
      ],
      "payable": false,
      "stateMutability": "view",
      "type": "function"
    },
    {
      "constant": false,
      "inputs": [
        {
          "name": "_address",
          "type": "address"
        }
      ],
      "name": "changeRole",
      "outputs": [],
      "payable": false,
      "stateMutability": "nonpayable",
      "type": "function"
    },
    {
      "constant": true,
      "inputs": [
        {
          "name": "",
          "type": "address"
        }
      ],
      "name": "addressIsAdmin",
      "outputs": [
        {
          "name": "",
          "type": "bool"
        }
      ],
      "payable": false,
      "stateMutability": "view",
      "type": "function"
    },
    {
      "constant": false,
      "inputs": [
        {
          "name": "_matchId",
          "type": "uint256"
        }
      ],
      "name": "startMatch",
      "outputs": [],
      "payable": false,
      "stateMutability": "nonpayable",
      "type": "function"
    },
    {
      "constant": true,
      "inputs": [],
      "name": "selectedMatchId",
      "outputs": [
        {
          "name": "",
          "type": "uint256"
        }
      ],
      "payable": false,
      "stateMutability": "view",
      "type": "function"
    },
    {
      "constant": true,
      "inputs": [],
      "name": "matchesNumber",
      "outputs": [
        {
          "name": "",
          "type": "uint256"
        }
      ],
      "payable": false,
      "stateMutability": "view",
      "type": "function"
    },
    {
      "constant": false,
      "inputs": [
        {
          "name": "_newOwner",
          "type": "address"
        }
      ],
      "name": "transferOwnership",
      "outputs": [],
      "payable": false,
      "stateMutability": "nonpayable",
      "type": "function"
    },
    {
      "anonymous": false,
      "inputs": [
        {
          "indexed": false,
          "name": "log",
          "type": "string"
        }
      ],
      "name": "LogNewOraclizeQuery",
      "type": "event"
    },
    {
      "anonymous": false,
      "inputs": [
        {
          "indexed": true,
          "name": "previousOwner",
          "type": "address"
        }
      ],
      "name": "OwnershipRenounced",
      "type": "event"
    },
    {
      "anonymous": false,
      "inputs": [
        {
          "indexed": true,
          "name": "previousOwner",
          "type": "address"
        },
        {
          "indexed": true,
          "name": "newOwner",
          "type": "address"
        }
      ],
      "name": "OwnershipTransferred",
      "type": "event"
    },
    {
      "constant": false,
      "inputs": [
        {
          "name": "_matchId",
          "type": "uint256"
        },
        {
          "name": "_onRadiant",
          "type": "bool"
        }
      ],
      "name": "bet",
      "outputs": [],
      "payable": true,
      "stateMutability": "payable",
      "type": "function"
    },
    {
      "constant": true,
      "inputs": [
        {
          "name": "_matchId",
          "type": "uint256"
        }
      ],
      "name": "getOwnBets",
      "outputs": [
        {
          "name": "",
          "type": "uint256"
        },
        {
          "name": "",
          "type": "uint256"
        }
      ],
      "payable": false,
      "stateMutability": "view",
      "type": "function"
    },
    {
      "constant": true,
      "inputs": [
        {
          "name": "_matchId",
          "type": "uint256"
        }
      ],
      "name": "getTeamBets",
      "outputs": [
        {
          "name": "",
          "type": "uint256"
        },
        {
          "name": "",
          "type": "uint256"
        }
      ],
      "payable": false,
      "stateMutability": "view",
      "type": "function"
    },
    {
      "constant": false,
      "inputs": [
        {
          "name": "_matchId",
          "type": "uint256"
        },
        {
          "name": "_onRadiant",
          "type": "bool"
        },
        {
          "name": "_address",
          "type": "address"
        }
      ],
      "name": "refund",
      "outputs": [],
      "payable": true,
      "stateMutability": "payable",
      "type": "function"
    },
    {
      "constant": false,
      "inputs": [
        {
          "name": "_matchId",
          "type": "uint256"
        },
        {
          "name": "_amountWithdraw",
          "type": "uint256"
        },
        {
          "name": "_address",
          "type": "address"
        }
      ],
      "name": "withdrawWinnings",
      "outputs": [],
      "payable": true,
      "stateMutability": "payable",
      "type": "function"
    },
    {
      "constant": false,
      "inputs": [
        {
          "name": "_matchId",
          "type": "uint256"
        }
      ],
      "name": "getRemainingPricePool",
      "outputs": [],
      "payable": true,
      "stateMutability": "payable",
      "type": "function"
    }
  ],
  "bytecode": "0x6080604052336000806101000a81548173ffffffffffffffffffffffffffffffffffffffff021916908373ffffffffffffffffffffffffffffffffffffffff160217905550736f485c8bf6fc43ea212e93bbf8ce046c7f1cb475600160006101000a81548173ffffffffffffffffffffffffffffffffffffffff021916908373ffffffffffffffffffffffffffffffffffffffff1602179055506001600660003373ffffffffffffffffffffffffffffffffffffffff1673ffffffffffffffffffffffffffffffffffffffff16815260200190815260200160002060006101000a81548160ff0219169083151502179055506133db806101006000396000f30060806040526004361061011d576000357c0100000000000000000000000000000000000000000000000000000000900463ffffffff1680630eaa853214610122578063123886261461014f57806313ca2074146101905780631b30ca29146101dc57806327dc297e1461022457806331e0c5331461029b57806338bbfa50146102e35780634768d4ef146103a057806353088b941461042d5780635b8285321461045a578063715018a6146104c057806387c0b8e6146104d75780638da5cb5b146105215780639a6d3aaa14610578578063a305d719146105a4578063b5c4b23d146105e7578063bf725a8414610642578063cdd0f1d01461066f578063ec781f0f1461069a578063f2fde38b146106c5578063f6c4d96514610708575b600080fd5b34801561012e57600080fd5b5061014d60048036038101908080359060200190929190505050610728565b005b34801561015b57600080fd5b5061017a600480360381019080803590602001909291905050506107dc565b6040518082815260200191505060405180910390f35b6101da60048036038101908080359060200190929190803515159060200190929190803573ffffffffffffffffffffffffffffffffffffffff1690602001909291905050506107f4565b005b3480156101e857600080fd5b5061020760048036038101908080359060200190929190505050610ac3565b604051808381526020018281526020019250505060405180910390f35b34801561023057600080fd5b506102996004803603810190808035600019169060200190929190803590602001908201803590602001908080601f0160208091040260200160405190810160405280939291908181526020018383808284378201915050505050509192919290505050610b0e565b005b3480156102a757600080fd5b506102c660048036038101908080359060200190929190505050610dbf565b604051808381526020018281526020019250505060405180910390f35b3480156102ef57600080fd5b5061039e6004803603810190808035600019169060200190929190803590602001908201803590602001908080601f0160208091040260200160405190810160405280939291908181526020018383808284378201915050505050509192919290803590602001908201803590602001908080601f0160208091040260200160405190810160405280939291908181526020018383808284378201915050505050509192919290505050610e84565b005b3480156103ac57600080fd5b506103cb60048036038101908080359060200190929190505050610e89565b604051808a81526020018981526020018881526020018781526020018615151515815260200185151515158152602001841515151581526020018315151515815260200182151515158152602001995050505050505050505060405180910390f35b34801561043957600080fd5b5061045860048036038101908080359060200190929190505050610f27565b005b6104be600480360381019080803590602001908201803590602001908080601f0160208091040260200160405190810160405280939291908181526020018383808284378201915050505050509192919290803590602001909291905050506110fc565b005b3480156104cc57600080fd5b506104d56113de565b005b61051f6004803603810190808035906020019092919080359060200190929190803573ffffffffffffffffffffffffffffffffffffffff1690602001909291905050506114e0565b005b34801561052d57600080fd5b5061053661184f565b604051808273ffffffffffffffffffffffffffffffffffffffff1673ffffffffffffffffffffffffffffffffffffffff16815260200191505060405180910390f35b6105a260048036038101908080359060200190929190803515159060200190929190505050611874565b005b3480156105b057600080fd5b506105e5600480360381019080803573ffffffffffffffffffffffffffffffffffffffff169060200190929190505050611ba9565b005b3480156105f357600080fd5b50610628600480360381019080803573ffffffffffffffffffffffffffffffffffffffff169060200190929190505050611caf565b604051808215151515815260200191505060405180910390f35b34801561064e57600080fd5b5061066d60048036038101908080359060200190929190505050611ccf565b005b34801561067b57600080fd5b50610684611da0565b6040518082815260200191505060405180910390f35b3480156106a657600080fd5b506106af611da6565b6040518082815260200191505060405180910390f35b3480156106d157600080fd5b50610706600480360381019080803573ffffffffffffffffffffffffffffffffffffffff169060200190929190505050611db3565b005b61072660048036038101908080359060200190929190505050611e1a565b005b600060011515600660003373ffffffffffffffffffffffffffffffffffffffff1673ffffffffffffffffffffffffffffffffffffffff16815260200190815260200160002060009054906101000a900460ff16151514151561078957600080fd5b600860076000848152602001908152602001600020548154811015156107ab57fe5b9060005260206000209060090201905060018160040160026101000a81548160ff0219169083151502179055505050565b60076020528060005260406000206000915090505481565b600080848360006008600760008581526020019081526020016000205481548110151561081d57fe5b90600052602060002090600902019050600115158160070160008473ffffffffffffffffffffffffffffffffffffffff1673ffffffffffffffffffffffffffffffffffffffff16815260200190815260200160002060009054906101000a900460ff16151514151561088e57600080fd5b6008600760008a8152602001908152602001600020548154811015156108b057fe5b906000526020600020906009020194508615610968578460050160008773ffffffffffffffffffffffffffffffffffffffff1673ffffffffffffffffffffffffffffffffffffffff16815260200190815260200160002054935083856002016000828254039250508190555060008560050160008873ffffffffffffffffffffffffffffffffffffffff1673ffffffffffffffffffffffffffffffffffffffff16815260200190815260200160002081905550610a06565b8460060160008773ffffffffffffffffffffffffffffffffffffffff1673ffffffffffffffffffffffffffffffffffffffff16815260200190815260200160002054935083856003016000828254039250508190555060008560060160008873ffffffffffffffffffffffffffffffffffffffff1673ffffffffffffffffffffffffffffffffffffffff168152602001908152602001600020819055505b60008560070160008873ffffffffffffffffffffffffffffffffffffffff1673ffffffffffffffffffffffffffffffffffffffff16815260200190815260200160002060006101000a81548160ff0219169083151502179055508385600101600082825403925050819055508573ffffffffffffffffffffffffffffffffffffffff166108fc859081150290604051600060405180830381858888f19350505050158015610ab8573d6000803e3d6000fd5b505050505050505050565b600080600060086007600086815260200190815260200160002054815481101515610aea57fe5b90600052602060002090600902019050806002015481600301549250925050915091565b6000610b18611efc565b73ffffffffffffffffffffffffffffffffffffffff163373ffffffffffffffffffffffffffffffffffffffff16141515610b5157600080fd5b604051806000019050604051809103902060001916826040518082805190602001908083835b602083101515610b9c5780518252602082019150602081019050602083039250610b77565b6001836020036101000a03801982511681845116808217855250505050505090500191505060405180910390206000191614151515610bda57600080fd5b600860076000600954815260200190815260200160002054815481101515610bfe57fe5b9060005260206000209060090201905060405180807f52616469616e74000000000000000000000000000000000000000000000000008152506007019050604051809103902060001916826040518082805190602001908083835b602083101515610c7e5780518252602082019150602081019050602083039250610c59565b6001836020036101000a0380198251168184511680821785525050505050509050019150506040518091039020600019161415610cd75760018160040160006101000a81548160ff021916908315150217905550610d9d565b60405180807f44697265000000000000000000000000000000000000000000000000000000008152506004019050604051809103902060001916826040518082805190602001908083835b602083101515610d475780518252602082019150602081019050602083039250610d22565b6001836020036101000a0380198251168184511680821785525050505050509050019150506040518091039020600019161415610d9c5760018160040160016101000a81548160ff0219169083151502179055505b5b60018160040160026101000a81548160ff021916908315150217905550505050565b600080600060086007600086815260200190815260200160002054815481101515610de657fe5b906000526020600020906009020190508060050160003373ffffffffffffffffffffffffffffffffffffffff1673ffffffffffffffffffffffffffffffffffffffff168152602001908152602001600020548160060160003373ffffffffffffffffffffffffffffffffffffffff1673ffffffffffffffffffffffffffffffffffffffff168152602001908152602001600020549250925050915091565b505050565b600881815481101515610e9857fe5b90600052602060002090600902016000915090508060000154908060010154908060020154908060030154908060040160009054906101000a900460ff16908060040160019054906101000a900460ff16908060040160029054906101000a900460ff16908060040160039054906101000a900460ff16908060040160049054906101000a900460ff16905089565b610f2f613299565b60008260006007600083815260200190815260200160002054141515610f5457600080fd5b60011515600660003373ffffffffffffffffffffffffffffffffffffffff1673ffffffffffffffffffffffffffffffffffffffff16815260200190815260200160002060009054906101000a900460ff161515141515610fb357600080fd5b8383600001818152505060018360e00190151590811515815250506001836101000190151590811515815250506001600884908060018154018082558091505090600182039060005260206000209060090201600090919290919091506000820151816000015560208201518160010155604082015181600201556060820151816003015560808201518160040160006101000a81548160ff02191690831515021790555060a08201518160040160016101000a81548160ff02191690831515021790555060c08201518160040160026101000a81548160ff02191690831515021790555060e08201518160040160036101000a81548160ff0219169083151502179055506101008201518160040160046101000a81548160ff021916908315150217905550505003915081600760008681526020019081526020016000208190555050505050565b60608060011515600660003373ffffffffffffffffffffffffffffffffffffffff1673ffffffffffffffffffffffffffffffffffffffff16815260200190815260200160002060009054906101000a900460ff16151514151561115e57600080fd5b3073ffffffffffffffffffffffffffffffffffffffff16316111b46040805190810160405280600381526020017f55524c000000000000000000000000000000000000000000000000000000000081525061225e565b1115611228576040517f08c379a00000000000000000000000000000000000000000000000000000000081526004018080602001828103825260128152602001807f4e6f7420656e6f7567682062616c616e6365000000000000000000000000000081525060200191505060405180910390fd5b7f621c2856e3b87f81235f8ac8a22bbb40a0142961960710d00b2b6c380902b57e6040518080602001828103825260358152602001807f4f7261636c697a65207175657279207761732073656e742c207374616e64696e81526020017f6720627920666f722074686520616e737765722e2e000000000000000000000081525060400191505060405180910390a16113356112c285612632565b611327606060405190810160405280603a81526020017f6a736f6e2868747470733a2f2f626f756e74792d72756e652d6272696467652e81526020017f6865726f6b756170702e636f6d2f726573756c742f646f74612f000000000000815250612632565b61266090919063ffffffff16565b915061138f6113786040805190810160405280600881526020017f292e77696e6e6572000000000000000000000000000000000000000000000000815250612632565b61138184612632565b61266090919063ffffffff16565b9050826009819055506113d76040805190810160405280600381526020017f55524c0000000000000000000000000000000000000000000000000000000000815250826126e2565b5050505050565b6000809054906101000a900473ffffffffffffffffffffffffffffffffffffffff1673ffffffffffffffffffffffffffffffffffffffff163373ffffffffffffffffffffffffffffffffffffffff1614151561143957600080fd5b6000809054906101000a900473ffffffffffffffffffffffffffffffffffffffff1673ffffffffffffffffffffffffffffffffffffffff167ff8df31144d9c2f0f6b59d69b8b98abd5459d07f2742c4df920b25aae33c6482060405160405180910390a260008060006101000a81548173ffffffffffffffffffffffffffffffffffffffff021916908373ffffffffffffffffffffffffffffffffffffffff160217905550565b6000838260006008600760008581526020019081526020016000205481548110151561150857fe5b90600052602060002090600902019050600015158160080160008473ffffffffffffffffffffffffffffffffffffffff1673ffffffffffffffffffffffffffffffffffffffff16815260200190815260200160002060009054906101000a900460ff16151514151561157957600080fd5b868560006008600760008581526020019081526020016000205481548110151561159f57fe5b90600052602060002090600902019050600115158160070160008473ffffffffffffffffffffffffffffffffffffffff1673ffffffffffffffffffffffffffffffffffffffff16815260200190815260200160002060009054906101000a900460ff16151514151561161057600080fd5b60011515600660003373ffffffffffffffffffffffffffffffffffffffff1673ffffffffffffffffffffffffffffffffffffffff16815260200190815260200160002060009054906101000a900460ff16151514151561166f57600080fd5b6008600760008c81526020019081526020016000205481548110151561169157fe5b90600052602060002090600902019650600115158760040160009054906101000a900460ff16151514806116da5750600115158760040160019054906101000a900460ff161515145b15156116e557600080fd5b888760050160008a73ffffffffffffffffffffffffffffffffffffffff1673ffffffffffffffffffffffffffffffffffffffff168152602001908152602001600020541015806117765750888760060160008a73ffffffffffffffffffffffffffffffffffffffff1673ffffffffffffffffffffffffffffffffffffffff1681526020019081526020016000205410155b80611785575088876001015410155b151561179057600080fd5b60018760080160008a73ffffffffffffffffffffffffffffffffffffffff1673ffffffffffffffffffffffffffffffffffffffff16815260200190815260200160002060006101000a81548160ff0219169083151502179055508773ffffffffffffffffffffffffffffffffffffffff166108fc8a9081150290604051600060405180830381858888f19350505050158015611830573d6000803e3d6000fd5b5088876001016000828254039250508190555050505050505050505050565b6000809054906101000a900473ffffffffffffffffffffffffffffffffffffffff1681565b60008261187f613299565b600860076000848152602001908152602001600020548154811015156118a157fe5b90600052602060002090600902016101206040519081016040529081600082015481526020016001820154815260200160028201548152602001600382015481526020016004820160009054906101000a900460ff161515151581526020016004820160019054906101000a900460ff161515151581526020016004820160029054906101000a900460ff161515151581526020016004820160039054906101000a900460ff161515151581526020016004820160049054906101000a900460ff1615151515815250509050600115158160e00151151514151561198457600080fd5b60011515816101000151151514151561199c57600080fd5b84336000600860076000858152602001908152602001600020548154811015156119c257fe5b90600052602060002090600902019050600015158160070160008473ffffffffffffffffffffffffffffffffffffffff1673ffffffffffffffffffffffffffffffffffffffff16815260200190815260200160002060009054906101000a900460ff161515141515611a3357600080fd5b6008600760008a815260200190815260200160002054815481101515611a5557fe5b906000526020600020906009020195508615611ad157348660050160003373ffffffffffffffffffffffffffffffffffffffff1673ffffffffffffffffffffffffffffffffffffffff16815260200190815260200160002060008282540192505081905550348660020160008282540192505081905550611b33565b348660060160003373ffffffffffffffffffffffffffffffffffffffff1673ffffffffffffffffffffffffffffffffffffffff168152602001908152602001600020600082825401925050819055503486600301600082825401925050819055505b34866001016000828254019250508190555060018660070160003373ffffffffffffffffffffffffffffffffffffffff1673ffffffffffffffffffffffffffffffffffffffff16815260200190815260200160002060006101000a81548160ff0219169083151502179055505050505050505050565b60011515600660003373ffffffffffffffffffffffffffffffffffffffff1673ffffffffffffffffffffffffffffffffffffffff16815260200190815260200160002060009054906101000a900460ff161515141515611c0857600080fd5b600660008273ffffffffffffffffffffffffffffffffffffffff1673ffffffffffffffffffffffffffffffffffffffff16815260200190815260200160002060009054906101000a900460ff1615600660008373ffffffffffffffffffffffffffffffffffffffff1673ffffffffffffffffffffffffffffffffffffffff16815260200190815260200160002060006101000a81548160ff02191690831515021790555050565b60066020528060005260406000206000915054906101000a900460ff1681565b600060011515600660003373ffffffffffffffffffffffffffffffffffffffff1673ffffffffffffffffffffffffffffffffffffffff16815260200190815260200160002060009054906101000a900460ff161515141515611d3057600080fd5b60086007600084815260200190815260200160002054815481101515611d5257fe5b9060005260206000209060090201905060008160040160036101000a81548160ff02191690831515021790555060008160040160046101000a81548160ff0219169083151502179055505050565b60095481565b6000600880549050905090565b6000809054906101000a900473ffffffffffffffffffffffffffffffffffffffff1673ffffffffffffffffffffffffffffffffffffffff163373ffffffffffffffffffffffffffffffffffffffff16141515611e0e57600080fd5b611e1781612c88565b50565b600060011515600660003373ffffffffffffffffffffffffffffffffffffffff1673ffffffffffffffffffffffffffffffffffffffff16815260200190815260200160002060009054906101000a900460ff161515141515611e7b57600080fd5b60086007600084815260200190815260200160002054815481101515611e9d57fe5b906000526020600020906009020190503373ffffffffffffffffffffffffffffffffffffffff166108fc82600101549081150290604051600060405180830381858888f19350505050158015611ef7573d6000803e3d6000fd5b505050565b600080600160009054906101000a900473ffffffffffffffffffffffffffffffffffffffff1673ffffffffffffffffffffffffffffffffffffffff161480611f6e57506000611f6c600160009054906101000a900473ffffffffffffffffffffffffffffffffffffffff16612d82565b145b15611f7f57611f7d6000612d8d565b505b600160009054906101000a900473ffffffffffffffffffffffffffffffffffffffff1673ffffffffffffffffffffffffffffffffffffffff166338cc48316040518163ffffffff167c0100000000000000000000000000000000000000000000000000000000028152600401602060405180830381600087803b15801561200557600080fd5b505af1158015612019573d6000803e3d6000fd5b505050506040513d602081101561202f57600080fd5b810190808051906020019092919050505073ffffffffffffffffffffffffffffffffffffffff16600260009054906101000a900473ffffffffffffffffffffffffffffffffffffffff1673ffffffffffffffffffffffffffffffffffffffff1614151561219857600160009054906101000a900473ffffffffffffffffffffffffffffffffffffffff1673ffffffffffffffffffffffffffffffffffffffff166338cc48316040518163ffffffff167c0100000000000000000000000000000000000000000000000000000000028152600401602060405180830381600087803b15801561211c57600080fd5b505af1158015612130573d6000803e3d6000fd5b505050506040513d602081101561214657600080fd5b8101908080519060200190929190505050600260006101000a81548173ffffffffffffffffffffffffffffffffffffffff021916908373ffffffffffffffffffffffffffffffffffffffff1602179055505b600260009054906101000a900473ffffffffffffffffffffffffffffffffffffffff1673ffffffffffffffffffffffffffffffffffffffff1663c281d19e6040518163ffffffff167c0100000000000000000000000000000000000000000000000000000000028152600401602060405180830381600087803b15801561221e57600080fd5b505af1158015612232573d6000803e3d6000fd5b505050506040513d602081101561224857600080fd5b8101908080519060200190929190505050905090565b600080600160009054906101000a900473ffffffffffffffffffffffffffffffffffffffff1673ffffffffffffffffffffffffffffffffffffffff1614806122d0575060006122ce600160009054906101000a900473ffffffffffffffffffffffffffffffffffffffff16612d82565b145b156122e1576122df6000612d8d565b505b600160009054906101000a900473ffffffffffffffffffffffffffffffffffffffff1673ffffffffffffffffffffffffffffffffffffffff166338cc48316040518163ffffffff167c0100000000000000000000000000000000000000000000000000000000028152600401602060405180830381600087803b15801561236757600080fd5b505af115801561237b573d6000803e3d6000fd5b505050506040513d602081101561239157600080fd5b810190808051906020019092919050505073ffffffffffffffffffffffffffffffffffffffff16600260009054906101000a900473ffffffffffffffffffffffffffffffffffffffff1673ffffffffffffffffffffffffffffffffffffffff161415156124fa57600160009054906101000a900473ffffffffffffffffffffffffffffffffffffffff1673ffffffffffffffffffffffffffffffffffffffff166338cc48316040518163ffffffff167c0100000000000000000000000000000000000000000000000000000000028152600401602060405180830381600087803b15801561247e57600080fd5b505af1158015612492573d6000803e3d6000fd5b505050506040513d60208110156124a857600080fd5b8101908080519060200190929190505050600260006101000a81548173ffffffffffffffffffffffffffffffffffffffff021916908373ffffffffffffffffffffffffffffffffffffffff1602179055505b600260009054906101000a900473ffffffffffffffffffffffffffffffffffffffff1673ffffffffffffffffffffffffffffffffffffffff1663524f3889836040518263ffffffff167c01000000000000000000000000000000000000000000000000000000000281526004018080602001828103825283818151815260200191508051906020019080838360005b838110156125a4578082015181840152602081019050612589565b50505050905090810190601f1680156125d15780820380516001836020036101000a031916815260200191505b5092505050602060405180830381600087803b1580156125f057600080fd5b505af1158015612604573d6000803e3d6000fd5b505050506040513d602081101561261a57600080fd5b81019080805190602001909291905050509050919050565b61263a6132f0565b600060208301905060408051908101604052808451815260200182815250915050919050565b606080600083600001518560000151016040519080825280601f01601f1916602001820160405280156126a25781602001602082028038833980820191505090505b5091506020820190506126be8186602001518760000151612d9e565b6126d78560000151820185602001518660000151612d9e565b819250505092915050565b6000806000600160009054906101000a900473ffffffffffffffffffffffffffffffffffffffff1673ffffffffffffffffffffffffffffffffffffffff16148061275657506000612754600160009054906101000a900473ffffffffffffffffffffffffffffffffffffffff16612d82565b145b15612767576127656000612d8d565b505b600160009054906101000a900473ffffffffffffffffffffffffffffffffffffffff1673ffffffffffffffffffffffffffffffffffffffff166338cc48316040518163ffffffff167c0100000000000000000000000000000000000000000000000000000000028152600401602060405180830381600087803b1580156127ed57600080fd5b505af1158015612801573d6000803e3d6000fd5b505050506040513d602081101561281757600080fd5b810190808051906020019092919050505073ffffffffffffffffffffffffffffffffffffffff16600260009054906101000a900473ffffffffffffffffffffffffffffffffffffffff1673ffffffffffffffffffffffffffffffffffffffff1614151561298057600160009054906101000a900473ffffffffffffffffffffffffffffffffffffffff1673ffffffffffffffffffffffffffffffffffffffff166338cc48316040518163ffffffff167c0100000000000000000000000000000000000000000000000000000000028152600401602060405180830381600087803b15801561290457600080fd5b505af1158015612918573d6000803e3d6000fd5b505050506040513d602081101561292e57600080fd5b8101908080519060200190929190505050600260006101000a81548173ffffffffffffffffffffffffffffffffffffffff021916908373ffffffffffffffffffffffffffffffffffffffff1602179055505b600260009054906101000a900473ffffffffffffffffffffffffffffffffffffffff1673ffffffffffffffffffffffffffffffffffffffff1663524f3889856040518263ffffffff167c01000000000000000000000000000000000000000000000000000000000281526004018080602001828103825283818151815260200191508051906020019080838360005b83811015612a2a578082015181840152602081019050612a0f565b50505050905090810190601f168015612a575780820380516001836020036101000a031916815260200191505b5092505050602060405180830381600087803b158015612a7657600080fd5b505af1158015612a8a573d6000803e3d6000fd5b505050506040513d6020811015612aa057600080fd5b8101908080519060200190929190505050905062030d403a02670de0b6b3a764000001811115612ad65760006001029150612c81565b600260009054906101000a900473ffffffffffffffffffffffffffffffffffffffff1673ffffffffffffffffffffffffffffffffffffffff1663adf59f9982600087876040518563ffffffff167c0100000000000000000000000000000000000000000000000000000000028152600401808481526020018060200180602001838103835285818151815260200191508051906020019080838360005b83811015612b8e578082015181840152602081019050612b73565b50505050905090810190601f168015612bbb5780820380516001836020036101000a031916815260200191505b50838103825284818151815260200191508051906020019080838360005b83811015612bf4578082015181840152602081019050612bd9565b50505050905090810190601f168015612c215780820380516001836020036101000a031916815260200191505b50955050505050506020604051808303818588803b158015612c4257600080fd5b505af1158015612c56573d6000803e3d6000fd5b50505050506040513d6020811015612c6d57600080fd5b810190808051906020019092919050505091505b5092915050565b600073ffffffffffffffffffffffffffffffffffffffff168173ffffffffffffffffffffffffffffffffffffffff1614151515612cc457600080fd5b8073ffffffffffffffffffffffffffffffffffffffff166000809054906101000a900473ffffffffffffffffffffffffffffffffffffffff1673ffffffffffffffffffffffffffffffffffffffff167f8be0079c531659141344cd1fd0a4f28419497f9722a3daafe3b4186f6b6457e060405160405180910390a3806000806101000a81548173ffffffffffffffffffffffffffffffffffffffff021916908373ffffffffffffffffffffffffffffffffffffffff16021790555050565b6000813b9050919050565b6000612d97612de9565b9050919050565b60005b602082101515612dc65782518452602084019350602083019250602082039150612da1565b6001826020036101000a0390508019835116818551168181178652505050505050565b600080612e09731d3b2638a7cc9f2cb3d298a3da7a90b67e5506ed612d82565b1115612eab57731d3b2638a7cc9f2cb3d298a3da7a90b67e5506ed600160006101000a81548173ffffffffffffffffffffffffffffffffffffffff021916908373ffffffffffffffffffffffffffffffffffffffff160217905550612ea26040805190810160405280600b81526020017f6574685f6d61696e6e657400000000000000000000000000000000000000000081525061327f565b6001905061327c565b6000612eca73c03a2615d5efaf5f49f60b7bb6583eaec212fdf1612d82565b1115612f6c5773c03a2615d5efaf5f49f60b7bb6583eaec212fdf1600160006101000a81548173ffffffffffffffffffffffffffffffffffffffff021916908373ffffffffffffffffffffffffffffffffffffffff160217905550612f636040805190810160405280600c81526020017f6574685f726f707374656e33000000000000000000000000000000000000000081525061327f565b6001905061327c565b6000612f8b73b7a07bcf2ba2f2703b24c0691b5278999c59ac7e612d82565b111561302d5773b7a07bcf2ba2f2703b24c0691b5278999c59ac7e600160006101000a81548173ffffffffffffffffffffffffffffffffffffffff021916908373ffffffffffffffffffffffffffffffffffffffff1602179055506130246040805190810160405280600981526020017f6574685f6b6f76616e000000000000000000000000000000000000000000000081525061327f565b6001905061327c565b600061304c73146500cfd35b22e4a392fe0adc06de1a1368ed48612d82565b11156130ee5773146500cfd35b22e4a392fe0adc06de1a1368ed48600160006101000a81548173ffffffffffffffffffffffffffffffffffffffff021916908373ffffffffffffffffffffffffffffffffffffffff1602179055506130e56040805190810160405280600b81526020017f6574685f72696e6b65627900000000000000000000000000000000000000000081525061327f565b6001905061327c565b600061310d736f485c8bf6fc43ea212e93bbf8ce046c7f1cb475612d82565b111561317157736f485c8bf6fc43ea212e93bbf8ce046c7f1cb475600160006101000a81548173ffffffffffffffffffffffffffffffffffffffff021916908373ffffffffffffffffffffffffffffffffffffffff1602179055506001905061327c565b60006131907320e12a1f859b3feae5fb2a0a32c18f5a65555bbf612d82565b11156131f4577320e12a1f859b3feae5fb2a0a32c18f5a65555bbf600160006101000a81548173ffffffffffffffffffffffffffffffffffffffff021916908373ffffffffffffffffffffffffffffffffffffffff1602179055506001905061327c565b60006132137351efaf4c8b3c9afbd5ab9f4bbc82784ab6ef8faa612d82565b1115613277577351efaf4c8b3c9afbd5ab9f4bbc82784ab6ef8faa600160006101000a81548173ffffffffffffffffffffffffffffffffffffffff021916908373ffffffffffffffffffffffffffffffffffffffff1602179055506001905061327c565b600090505b90565b806003908051906020019061329592919061330a565b5050565b61012060405190810160405280600081526020016000815260200160008152602001600081526020016000151581526020016000151581526020016000151581526020016000151581526020016000151581525090565b604080519081016040528060008152602001600081525090565b828054600181600116156101000203166002900490600052602060002090601f016020900481019282601f1061334b57805160ff1916838001178555613379565b82800160010185558215613379579182015b8281111561337857825182559160200191906001019061335d565b5b509050613386919061338a565b5090565b6133ac91905b808211156133a8576000816000905550600101613390565b5090565b905600a165627a7a7230582064b2f951848c1e70a0128fbe890acd33f8b51c7db98dfff96346c0dd97b039c90029",
  "source": "pragma solidity ^0.4.24;\n\nimport \"./MatchManager.sol\";\n\ncontract BettingManager is MatchManager {\n    function bet(uint _matchId, bool _onRadiant) payable public \n    matchNotStarted(_matchId) canBeBetted(_matchId, msg.sender) {\n        Match storage selectedMatch = matches[matchIdToId[_matchId]];\n        if (_onRadiant) {\n            selectedMatch.betsOnRadiant[msg.sender] += msg.value;\n            selectedMatch.radiantBets += msg.value;\n        } else {\n            selectedMatch.betsOnDire[msg.sender] += msg.value;\n            selectedMatch.direBets += msg.value;\n        }\n        selectedMatch.poolPrice += msg.value;\n        selectedMatch.hasBet[msg.sender] = true;\n    }\n    \n    function getOwnBets(uint _matchId) public view returns (uint, uint) {\n        Match storage selectedMatch = matches[matchIdToId[_matchId]];\n        return (selectedMatch.betsOnRadiant[msg.sender], selectedMatch.betsOnDire[msg.sender]);\n    }\n    \n    function getTeamBets(uint _matchId) public view returns (uint, uint) {\n        Match storage selectedMatch = matches[matchIdToId[_matchId]];\n        return (selectedMatch.radiantBets, selectedMatch.direBets);\n    }\n    \n    function refund(uint _matchId, bool _onRadiant, address _address) \n        public payable  hasBetted(_matchId, _address) {\n        Match storage selectedMatch = matches[matchIdToId[_matchId]];\n        uint currentBet;\n        if (_onRadiant) {\n            currentBet = selectedMatch.betsOnRadiant[_address];\n            selectedMatch.radiantBets -= currentBet;\n            selectedMatch.betsOnRadiant[_address] = 0;\n            \n        } else {\n            currentBet = selectedMatch.betsOnDire[_address];\n            selectedMatch.direBets -= currentBet;\n            selectedMatch.betsOnDire[_address] = 0;\n \n        }\n        selectedMatch.hasBet[_address] = false;\n        selectedMatch.poolPrice -= currentBet;\n        _address.transfer(currentBet);\n    }\n\n\n    function withdrawWinnings(uint _matchId, uint _amountWithdraw, address _address) \n        public \n        payable \n        canBeWithdraw(_matchId, _address)\n        hasBetted(_matchId, _address)\n        onlyAdmin\n        {\n        Match storage selectedMatch = matches[matchIdToId[_matchId]];\n        require(selectedMatch.radiantWin == true || selectedMatch.direWin == true);\n        require(\n            selectedMatch.betsOnRadiant[_address] >= _amountWithdraw ||\n            selectedMatch.betsOnDire[_address] >= _amountWithdraw ||\n            selectedMatch.poolPrice >= _amountWithdraw\n         );\n        selectedMatch.winningsWithdraw[_address] = true;\n        _address.transfer(_amountWithdraw);\n        selectedMatch.poolPrice -= _amountWithdraw;\n    }\n    \n    function getRemainingPricePool(uint _matchId)\n        public\n        payable \n        onlyAdmin {\n            Match storage selectedMatch = matches[matchIdToId[_matchId]];\n            msg.sender.transfer(selectedMatch.poolPrice);\n        }\n}\n\n",
  "sourcePath": "/home/clippe/Code/KingsLand/DApp_Project/BountyRune-Server/contracts/BettingManager.sol",
  "compiler": {
    "name": "solc",
    "version": "0.4.24+commit.e67f0147.Emscripten.clang"
  },
  "schemaVersion": "2.0.1",
  "updatedAt": "2018-09-28T10:55:05.479Z"
}