{
  "contractName": "BettingManager",
  "abi": [
    {
      "constant": false,
      "inputs": [
        {
          "name": "_matchId",
          "type": "uint256"
        },
        {
          "name": "_radiantWin",
          "type": "bool"
        }
      ],
      "name": "endMatch",
      "outputs": [],
      "payable": false,
      "stateMutability": "nonpayable",
      "type": "function"
    },
    {
      "constant": true,
      "inputs": [
        {
          "name": "",
          "type": "uint256"
        }
      ],
      "name": "matchIdToId",
      "outputs": [
        {
          "name": "",
          "type": "uint256"
        }
      ],
      "payable": false,
      "stateMutability": "view",
      "type": "function"
    },
    {
      "constant": false,
      "inputs": [
        {
          "name": "myid",
          "type": "bytes32"
        },
        {
          "name": "result",
          "type": "string"
        }
      ],
      "name": "__callback",
      "outputs": [],
      "payable": false,
      "stateMutability": "nonpayable",
      "type": "function"
    },
    {
      "constant": false,
      "inputs": [
        {
          "name": "myid",
          "type": "bytes32"
        },
        {
          "name": "result",
          "type": "string"
        },
        {
          "name": "proof",
          "type": "bytes"
        }
      ],
      "name": "__callback",
      "outputs": [],
      "payable": false,
      "stateMutability": "nonpayable",
      "type": "function"
    },
    {
      "constant": false,
      "inputs": [
        {
          "name": "_matchId",
          "type": "uint256"
        },
        {
          "name": "_startTime",
          "type": "uint256"
        }
      ],
      "name": "addMatch",
      "outputs": [],
      "payable": false,
      "stateMutability": "nonpayable",
      "type": "function"
    },
    {
      "constant": true,
      "inputs": [
        {
          "name": "",
          "type": "uint256"
        }
      ],
      "name": "matches",
      "outputs": [
        {
          "name": "matchId",
          "type": "uint256"
        },
        {
          "name": "totalBets",
          "type": "uint256"
        },
        {
          "name": "radiantBets",
          "type": "uint256"
        },
        {
          "name": "direBets",
          "type": "uint256"
        },
        {
          "name": "startTime",
          "type": "uint256"
        },
        {
          "name": "radiantWin",
          "type": "bool"
        },
        {
          "name": "direWin",
          "type": "bool"
        },
        {
          "name": "withdrawable",
          "type": "bool"
        },
        {
          "name": "bettable",
          "type": "bool"
        },
        {
          "name": "refundable",
          "type": "bool"
        }
      ],
      "payable": false,
      "stateMutability": "view",
      "type": "function"
    },
    {
      "constant": false,
      "inputs": [
        {
          "name": "_matchIdString",
          "type": "string"
        },
        {
          "name": "_matchIdUint",
          "type": "uint256"
        }
      ],
      "name": "getMatchWinner",
      "outputs": [],
      "payable": true,
      "stateMutability": "payable",
      "type": "function"
    },
    {
      "constant": false,
      "inputs": [],
      "name": "renounceOwnership",
      "outputs": [],
      "payable": false,
      "stateMutability": "nonpayable",
      "type": "function"
    },
    {
      "constant": true,
      "inputs": [],
      "name": "owner",
      "outputs": [
        {
          "name": "",
          "type": "address"
        }
      ],
      "payable": false,
      "stateMutability": "view",
      "type": "function"
    },
    {
      "constant": false,
      "inputs": [
        {
          "name": "_address",
          "type": "address"
        }
      ],
      "name": "changeRole",
      "outputs": [],
      "payable": false,
      "stateMutability": "nonpayable",
      "type": "function"
    },
    {
      "constant": true,
      "inputs": [
        {
          "name": "",
          "type": "address"
        }
      ],
      "name": "addressIsAdmin",
      "outputs": [
        {
          "name": "",
          "type": "bool"
        }
      ],
      "payable": false,
      "stateMutability": "view",
      "type": "function"
    },
    {
      "constant": false,
      "inputs": [
        {
          "name": "_matchId",
          "type": "uint256"
        }
      ],
      "name": "startMatch",
      "outputs": [],
      "payable": false,
      "stateMutability": "nonpayable",
      "type": "function"
    },
    {
      "constant": true,
      "inputs": [],
      "name": "selectedMatchId",
      "outputs": [
        {
          "name": "",
          "type": "uint256"
        }
      ],
      "payable": false,
      "stateMutability": "view",
      "type": "function"
    },
    {
      "constant": true,
      "inputs": [],
      "name": "matchesNumber",
      "outputs": [
        {
          "name": "",
          "type": "uint256"
        }
      ],
      "payable": false,
      "stateMutability": "view",
      "type": "function"
    },
    {
      "constant": false,
      "inputs": [
        {
          "name": "_newOwner",
          "type": "address"
        }
      ],
      "name": "transferOwnership",
      "outputs": [],
      "payable": false,
      "stateMutability": "nonpayable",
      "type": "function"
    },
    {
      "payable": false,
      "stateMutability": "nonpayable",
      "type": "fallback"
    },
    {
      "anonymous": false,
      "inputs": [
        {
          "indexed": false,
          "name": "log",
          "type": "string"
        }
      ],
      "name": "LogNewOraclizeQuery",
      "type": "event"
    },
    {
      "anonymous": false,
      "inputs": [
        {
          "indexed": true,
          "name": "previousOwner",
          "type": "address"
        }
      ],
      "name": "OwnershipRenounced",
      "type": "event"
    },
    {
      "anonymous": false,
      "inputs": [
        {
          "indexed": true,
          "name": "previousOwner",
          "type": "address"
        },
        {
          "indexed": true,
          "name": "newOwner",
          "type": "address"
        }
      ],
      "name": "OwnershipTransferred",
      "type": "event"
    },
    {
      "constant": false,
      "inputs": [
        {
          "name": "_matchId",
          "type": "uint256"
        },
        {
          "name": "_onRadiant",
          "type": "bool"
        }
      ],
      "name": "bet",
      "outputs": [],
      "payable": true,
      "stateMutability": "payable",
      "type": "function"
    },
    {
      "constant": true,
      "inputs": [
        {
          "name": "_matchId",
          "type": "uint256"
        }
      ],
      "name": "getOwnBets",
      "outputs": [
        {
          "name": "",
          "type": "uint256"
        },
        {
          "name": "",
          "type": "uint256"
        }
      ],
      "payable": false,
      "stateMutability": "view",
      "type": "function"
    },
    {
      "constant": true,
      "inputs": [
        {
          "name": "_matchId",
          "type": "uint256"
        }
      ],
      "name": "getTeamBets",
      "outputs": [
        {
          "name": "",
          "type": "uint256"
        },
        {
          "name": "",
          "type": "uint256"
        }
      ],
      "payable": false,
      "stateMutability": "view",
      "type": "function"
    },
    {
      "constant": false,
      "inputs": [
        {
          "name": "_matchId",
          "type": "uint256"
        },
        {
          "name": "_onRadiant",
          "type": "bool"
        }
      ],
      "name": "refund",
      "outputs": [],
      "payable": true,
      "stateMutability": "payable",
      "type": "function"
    },
    {
      "constant": false,
      "inputs": [
        {
          "name": "_matchId",
          "type": "uint256"
        }
      ],
      "name": "setBets",
      "outputs": [],
      "payable": true,
      "stateMutability": "payable",
      "type": "function"
    },
    {
      "constant": false,
      "inputs": [
        {
          "name": "_matchId",
          "type": "uint256"
        },
        {
          "name": "_result",
          "type": "bool"
        }
      ],
      "name": "setBetsTest",
      "outputs": [],
      "payable": false,
      "stateMutability": "nonpayable",
      "type": "function"
    },
    {
      "constant": false,
      "inputs": [
        {
          "name": "_matchId",
          "type": "uint256"
        },
        {
          "name": "_amountWithdraw",
          "type": "uint256"
        }
      ],
      "name": "withdrawWinnings",
      "outputs": [],
      "payable": true,
      "stateMutability": "payable",
      "type": "function"
    },
    {
      "constant": false,
      "inputs": [
        {
          "name": "_matchId",
          "type": "uint256"
        },
        {
          "name": "_amountWithdraw",
          "type": "uint256"
        },
        {
          "name": "result",
          "type": "bool"
        }
      ],
      "name": "withdrawTesetWinnings",
      "outputs": [],
      "payable": true,
      "stateMutability": "payable",
      "type": "function"
    }
  ],
  "bytecode": "0x6080604052336000806101000a81548173ffffffffffffffffffffffffffffffffffffffff021916908373ffffffffffffffffffffffffffffffffffffffff160217905550730eddc9c6bb90017481a716b05176303b9db14bb3600160006101000a81548173ffffffffffffffffffffffffffffffffffffffff021916908373ffffffffffffffffffffffffffffffffffffffff1602179055506001600660003373ffffffffffffffffffffffffffffffffffffffff1673ffffffffffffffffffffffffffffffffffffffff16815260200190815260200160002060006101000a81548160ff0219169083151502179055506131d5806101006000396000f300608060405260043610610133576000357c0100000000000000000000000000000000000000000000000000000000900463ffffffff168063038b2c9214610145578063123886261461017e5780631b30ca29146101bf57806327dc297e1461020757806331e0c5331461027e57806338bbfa50146102c65780633991c09d146103835780634768d4ef146103ba5780635b8285321461044e57806367e853e7146104b45780636c9c5270146104ea578063715018a6146105165780638da5cb5b1461052d5780639a6d3aaa146105845780639b76baa2146105b0578063a305d719146105d0578063b5c4b23d14610613578063bf725a841461066e578063cdd0f1d01461069b578063e0a27b2c146106c6578063ec781f0f146106f0578063ef46de1a1461071b578063f2fde38b14610754575b34801561013f57600080fd5b50600080fd5b34801561015157600080fd5b5061017c60048036038101908080359060200190929190803515159060200190929190505050610797565b005b34801561018a57600080fd5b506101a96004803603810190808035906020019092919050505061084c565b6040518082815260200191505060405180910390f35b3480156101cb57600080fd5b506101ea60048036038101908080359060200190929190505050610864565b604051808381526020018281526020019250505060405180910390f35b34801561021357600080fd5b5061027c6004803603810190808035600019169060200190929190803590602001908201803590602001908080601f01602080910402602001604051908101604052809392919081815260200183838082843782019150505050505091929192905050506108af565b005b34801561028a57600080fd5b506102a960048036038101908080359060200190929190505050610b60565b604051808381526020018281526020019250505060405180910390f35b3480156102d257600080fd5b506103816004803603810190808035600019169060200190929190803590602001908201803590602001908080601f0160208091040260200160405190810160405280939291908181526020018383808284378201915050505050509192919290803590602001908201803590602001908080601f0160208091040260200160405190810160405280939291908181526020018383808284378201915050505050509192919290505050610c25565b005b34801561038f57600080fd5b506103b86004803603810190808035906020019092919080359060200190929190505050610c2a565b005b3480156103c657600080fd5b506103e560048036038101908080359060200190929190505050610e16565b604051808b81526020018a815260200189815260200188815260200187815260200186151515158152602001851515151581526020018415151515815260200183151515158152602001821515151581526020019a505050505050505050505060405180910390f35b6104b2600480360381019080803590602001908201803590602001908080601f016020809104026020016040519081016040528093929190818152602001838380828437820191505050505050919291929080359060200190929190505050610eba565b005b6104e8600480360381019080803590602001909291908035906020019092919080351515906020019092919050505061113d565b005b6105146004803603810190808035906020019092919080351515906020019092919050505061126a565b005b34801561052257600080fd5b5061052b611444565b005b34801561053957600080fd5b50610542611546565b604051808273ffffffffffffffffffffffffffffffffffffffff1673ffffffffffffffffffffffffffffffffffffffff16815260200191505060405180910390f35b6105ae6004803603810190808035906020019092919080351515906020019092919050505061156b565b005b6105ce600480360381019080803590602001909291905050506117b7565b005b3480156105dc57600080fd5b50610611600480360381019080803573ffffffffffffffffffffffffffffffffffffffff1690602001909291905050506118b1565b005b34801561061f57600080fd5b50610654600480360381019080803573ffffffffffffffffffffffffffffffffffffffff1690602001909291905050506119b7565b604051808215151515815260200191505060405180910390f35b34801561067a57600080fd5b50610699600480360381019080803590602001909291905050506119d7565b005b3480156106a757600080fd5b506106b0611aa8565b6040518082815260200191505060405180910390f35b6106ee6004803603810190808035906020019092919080359060200190929190505050611aae565b005b3480156106fc57600080fd5b50610705611be6565b6040518082815260200191505060405180910390f35b34801561072757600080fd5b5061075260048036038101908080359060200190929190803515159060200190929190505050611bf3565b005b34801561076057600080fd5b50610795600480360381019080803573ffffffffffffffffffffffffffffffffffffffff169060200190929190505050611c88565b005b600060011515600660003373ffffffffffffffffffffffffffffffffffffffff1673ffffffffffffffffffffffffffffffffffffffff16815260200190815260200160002060009054906101000a900460ff1615151415156107f857600080fd5b6008600760008581526020019081526020016000205481548110151561081a57fe5b9060005260206000209060090201905060018160050160026101000a81548160ff021916908315150217905550505050565b60076020528060005260406000206000915090505481565b60008060006008600760008681526020019081526020016000205481548110151561088b57fe5b90600052602060002090600902019050806002015481600301549250925050915091565b60006108b9611cef565b73ffffffffffffffffffffffffffffffffffffffff163373ffffffffffffffffffffffffffffffffffffffff161415156108f257600080fd5b604051806000019050604051809103902060001916826040518082805190602001908083835b60208310151561093d5780518252602082019150602081019050602083039250610918565b6001836020036101000a0380198251168184511680821785525050505050509050019150506040518091039020600019161415151561097b57600080fd5b60086007600060095481526020019081526020016000205481548110151561099f57fe5b9060005260206000209060090201905060405180807f52616469616e74000000000000000000000000000000000000000000000000008152506007019050604051809103902060001916826040518082805190602001908083835b602083101515610a1f57805182526020820191506020810190506020830392506109fa565b6001836020036101000a0380198251168184511680821785525050505050509050019150506040518091039020600019161415610a785760018160050160006101000a81548160ff021916908315150217905550610b3e565b60405180807f44697265000000000000000000000000000000000000000000000000000000008152506004019050604051809103902060001916826040518082805190602001908083835b602083101515610ae85780518252602082019150602081019050602083039250610ac3565b6001836020036101000a0380198251168184511680821785525050505050509050019150506040518091039020600019161415610b3d5760018160050160016101000a81548160ff0219169083151502179055505b5b60018160050160026101000a81548160ff021916908315150217905550505050565b600080600060086007600086815260200190815260200160002054815481101515610b8757fe5b906000526020600020906009020190508060060160003373ffffffffffffffffffffffffffffffffffffffff1673ffffffffffffffffffffffffffffffffffffffff168152602001908152602001600020548160070160003373ffffffffffffffffffffffffffffffffffffffff1673ffffffffffffffffffffffffffffffffffffffff168152602001908152602001600020549250925050915091565b505050565b610c3261308c565b60008360006007600083815260200190815260200160002054141515610c5757600080fd5b60011515600660003373ffffffffffffffffffffffffffffffffffffffff1673ffffffffffffffffffffffffffffffffffffffff16815260200190815260200160002060009054906101000a900460ff161515141515610cb657600080fd5b8483600001818152505060018361010001901515908115158152505060018361012001901515908115158152505083836080018181525050600160088490806001815401808255809150509060018203906000526020600020906009020160009091929091909150600082015181600001556020820151816001015560408201518160020155606082015181600301556080820151816004015560a08201518160050160006101000a81548160ff02191690831515021790555060c08201518160050160016101000a81548160ff02191690831515021790555060e08201518160050160026101000a81548160ff0219169083151502179055506101008201518160050160036101000a81548160ff0219169083151502179055506101208201518160050160046101000a81548160ff02191690831515021790555050500391508160076000878152602001908152602001600020819055505050505050565b600881815481101515610e2557fe5b90600052602060002090600902016000915090508060000154908060010154908060020154908060030154908060040154908060050160009054906101000a900460ff16908060050160019054906101000a900460ff16908060050160029054906101000a900460ff16908060050160039054906101000a900460ff16908060050160049054906101000a900460ff1690508a565b6060803073ffffffffffffffffffffffffffffffffffffffff1631610f136040805190810160405280600381526020017f55524c0000000000000000000000000000000000000000000000000000000000815250612051565b1115610f87576040517f08c379a00000000000000000000000000000000000000000000000000000000081526004018080602001828103825260128152602001807f4e6f7420656e6f7567682062616c616e6365000000000000000000000000000081525060200191505060405180910390fd5b7f621c2856e3b87f81235f8ac8a22bbb40a0142961960710d00b2b6c380902b57e6040518080602001828103825260358152602001807f4f7261636c697a65207175657279207761732073656e742c207374616e64696e81526020017f6720627920666f722074686520616e737765722e2e000000000000000000000081525060400191505060405180910390a161109461102185612425565b611086606060405190810160405280603a81526020017f6a736f6e2868747470733a2f2f626f756e74792d72756e652d6272696467652e81526020017f6865726f6b756170702e636f6d2f726573756c742f646f74612f000000000000815250612425565b61245390919063ffffffff16565b91506110ee6110d76040805190810160405280600881526020017f292e77696e6e6572000000000000000000000000000000000000000000000000815250612425565b6110e084612425565b61245390919063ffffffff16565b9050826009819055506111366040805190810160405280600381526020017f55524c0000000000000000000000000000000000000000000000000000000000815250826124d5565b5050505050565b60006008600760008681526020019081526020016000205481548110151561116157fe5b906000526020600020906009020190503373ffffffffffffffffffffffffffffffffffffffff166108fc849081150290604051600060405180830381858888f193505050501580156111b7573d6000803e3d6000fd5b508281600101600082825403925050819055506001151582151514156111ea578281600201600082825403925050819055505b60001515821515141561120a578281600301600082825403925050819055505b60018160080160003373ffffffffffffffffffffffffffffffffffffffff1673ffffffffffffffffffffffffffffffffffffffff16815260200190815260200160002060006101000a81548160ff02191690831515021790555050505050565b6000806008600760008681526020019081526020016000205481548110151561128f57fe5b906000526020600020906009020191508215611347578160060160003373ffffffffffffffffffffffffffffffffffffffff1673ffffffffffffffffffffffffffffffffffffffff16815260200190815260200160002054905080826002016000828254039250508190555060008260060160003373ffffffffffffffffffffffffffffffffffffffff1673ffffffffffffffffffffffffffffffffffffffff168152602001908152602001600020819055506113e5565b8160070160003373ffffffffffffffffffffffffffffffffffffffff1673ffffffffffffffffffffffffffffffffffffffff16815260200190815260200160002054905080826003016000828254039250508190555060008260070160003373ffffffffffffffffffffffffffffffffffffffff1673ffffffffffffffffffffffffffffffffffffffff168152602001908152602001600020819055505b8082600101600082825403925050819055503373ffffffffffffffffffffffffffffffffffffffff166108fc829081150290604051600060405180830381858888f1935050505015801561143d573d6000803e3d6000fd5b5050505050565b6000809054906101000a900473ffffffffffffffffffffffffffffffffffffffff1673ffffffffffffffffffffffffffffffffffffffff163373ffffffffffffffffffffffffffffffffffffffff1614151561149f57600080fd5b6000809054906101000a900473ffffffffffffffffffffffffffffffffffffffff1673ffffffffffffffffffffffffffffffffffffffff167ff8df31144d9c2f0f6b59d69b8b98abd5459d07f2742c4df920b25aae33c6482060405160405180910390a260008060006101000a81548173ffffffffffffffffffffffffffffffffffffffff021916908373ffffffffffffffffffffffffffffffffffffffff160217905550565b6000809054906101000a900473ffffffffffffffffffffffffffffffffffffffff1681565b60008261157661308c565b6008600760008481526020019081526020016000205481548110151561159857fe5b9060005260206000209060090201610140604051908101604052908160008201548152602001600182015481526020016002820154815260200160038201548152602001600482015481526020016005820160009054906101000a900460ff161515151581526020016005820160019054906101000a900460ff161515151581526020016005820160029054906101000a900460ff161515151581526020016005820160039054906101000a900460ff161515151581526020016005820160049054906101000a900460ff161515151581525050905060011515816101000151151514151561168657600080fd5b60011515816101200151151514151561169e57600080fd5b600860076000878152602001908152602001600020548154811015156116c057fe5b90600052602060002090600902019250831561173c57348360060160003373ffffffffffffffffffffffffffffffffffffffff1673ffffffffffffffffffffffffffffffffffffffff1681526020019081526020016000206000828254019250508190555034836002016000828254019250508190555061179e565b348360070160003373ffffffffffffffffffffffffffffffffffffffff1673ffffffffffffffffffffffffffffffffffffffff168152602001908152602001600020600082825401925050819055503483600301600082825401925050819055505b3483600101600082825401925050819055505050505050565b6000600860076000848152602001908152602001600020548154811015156117db57fe5b90600052602060002090600902019050600115158160050160009054906101000a900460ff16151514806118245750600115158160050160019054906101000a900460ff161515145b151561182f57600080fd5b600115158160050160009054906101000a900460ff161515141561186e5780600301548160020160008282540192505081905550600081600301819055505b600115158160050160019054906101000a900460ff16151514156118ad5780600201548160030160008282540192505081905550600081600201819055505b5050565b60011515600660003373ffffffffffffffffffffffffffffffffffffffff1673ffffffffffffffffffffffffffffffffffffffff16815260200190815260200160002060009054906101000a900460ff16151514151561191057600080fd5b600660008273ffffffffffffffffffffffffffffffffffffffff1673ffffffffffffffffffffffffffffffffffffffff16815260200190815260200160002060009054906101000a900460ff1615600660008373ffffffffffffffffffffffffffffffffffffffff1673ffffffffffffffffffffffffffffffffffffffff16815260200190815260200160002060006101000a81548160ff02191690831515021790555050565b60066020528060005260406000206000915054906101000a900460ff1681565b600060011515600660003373ffffffffffffffffffffffffffffffffffffffff1673ffffffffffffffffffffffffffffffffffffffff16815260200190815260200160002060009054906101000a900460ff161515141515611a3857600080fd5b60086007600084815260200190815260200160002054815481101515611a5a57fe5b9060005260206000209060090201905060008160050160036101000a81548160ff02191690831515021790555060008160050160046101000a81548160ff0219169083151502179055505050565b60095481565b600060086007600085815260200190815260200160002054815481101515611ad257fe5b90600052602060002090600902019050600115158160050160009054906101000a900460ff1615151480611b1b5750600115158160050160019054906101000a900460ff161515145b1515611b2657600080fd5b3373ffffffffffffffffffffffffffffffffffffffff166108fc839081150290604051600060405180830381858888f19350505050158015611b6c573d6000803e3d6000fd5b50818160010160008282540392505081905550600115158160050160009054906101000a900460ff1615151415611bb0578181600201600082825403925050819055505b600115158160050160019054906101000a900460ff1615151415611be1578181600301600082825403925050819055505b505050565b6000600880549050905090565b600060086007600085815260200190815260200160002054815481101515611c1757fe5b90600052602060002090600902019050600115158215151415611c555780600301548160020160008282540192505081905550600081600301819055505b600015158215151415611c835780600201548160030160008282540192505081905550600081600201819055505b505050565b6000809054906101000a900473ffffffffffffffffffffffffffffffffffffffff1673ffffffffffffffffffffffffffffffffffffffff163373ffffffffffffffffffffffffffffffffffffffff16141515611ce357600080fd5b611cec81612a7b565b50565b600080600160009054906101000a900473ffffffffffffffffffffffffffffffffffffffff1673ffffffffffffffffffffffffffffffffffffffff161480611d6157506000611d5f600160009054906101000a900473ffffffffffffffffffffffffffffffffffffffff16612b75565b145b15611d7257611d706000612b80565b505b600160009054906101000a900473ffffffffffffffffffffffffffffffffffffffff1673ffffffffffffffffffffffffffffffffffffffff166338cc48316040518163ffffffff167c0100000000000000000000000000000000000000000000000000000000028152600401602060405180830381600087803b158015611df857600080fd5b505af1158015611e0c573d6000803e3d6000fd5b505050506040513d6020811015611e2257600080fd5b810190808051906020019092919050505073ffffffffffffffffffffffffffffffffffffffff16600260009054906101000a900473ffffffffffffffffffffffffffffffffffffffff1673ffffffffffffffffffffffffffffffffffffffff16141515611f8b57600160009054906101000a900473ffffffffffffffffffffffffffffffffffffffff1673ffffffffffffffffffffffffffffffffffffffff166338cc48316040518163ffffffff167c0100000000000000000000000000000000000000000000000000000000028152600401602060405180830381600087803b158015611f0f57600080fd5b505af1158015611f23573d6000803e3d6000fd5b505050506040513d6020811015611f3957600080fd5b8101908080519060200190929190505050600260006101000a81548173ffffffffffffffffffffffffffffffffffffffff021916908373ffffffffffffffffffffffffffffffffffffffff1602179055505b600260009054906101000a900473ffffffffffffffffffffffffffffffffffffffff1673ffffffffffffffffffffffffffffffffffffffff1663c281d19e6040518163ffffffff167c0100000000000000000000000000000000000000000000000000000000028152600401602060405180830381600087803b15801561201157600080fd5b505af1158015612025573d6000803e3d6000fd5b505050506040513d602081101561203b57600080fd5b8101908080519060200190929190505050905090565b600080600160009054906101000a900473ffffffffffffffffffffffffffffffffffffffff1673ffffffffffffffffffffffffffffffffffffffff1614806120c3575060006120c1600160009054906101000a900473ffffffffffffffffffffffffffffffffffffffff16612b75565b145b156120d4576120d26000612b80565b505b600160009054906101000a900473ffffffffffffffffffffffffffffffffffffffff1673ffffffffffffffffffffffffffffffffffffffff166338cc48316040518163ffffffff167c0100000000000000000000000000000000000000000000000000000000028152600401602060405180830381600087803b15801561215a57600080fd5b505af115801561216e573d6000803e3d6000fd5b505050506040513d602081101561218457600080fd5b810190808051906020019092919050505073ffffffffffffffffffffffffffffffffffffffff16600260009054906101000a900473ffffffffffffffffffffffffffffffffffffffff1673ffffffffffffffffffffffffffffffffffffffff161415156122ed57600160009054906101000a900473ffffffffffffffffffffffffffffffffffffffff1673ffffffffffffffffffffffffffffffffffffffff166338cc48316040518163ffffffff167c0100000000000000000000000000000000000000000000000000000000028152600401602060405180830381600087803b15801561227157600080fd5b505af1158015612285573d6000803e3d6000fd5b505050506040513d602081101561229b57600080fd5b8101908080519060200190929190505050600260006101000a81548173ffffffffffffffffffffffffffffffffffffffff021916908373ffffffffffffffffffffffffffffffffffffffff1602179055505b600260009054906101000a900473ffffffffffffffffffffffffffffffffffffffff1673ffffffffffffffffffffffffffffffffffffffff1663524f3889836040518263ffffffff167c01000000000000000000000000000000000000000000000000000000000281526004018080602001828103825283818151815260200191508051906020019080838360005b8381101561239757808201518184015260208101905061237c565b50505050905090810190601f1680156123c45780820380516001836020036101000a031916815260200191505b5092505050602060405180830381600087803b1580156123e357600080fd5b505af11580156123f7573d6000803e3d6000fd5b505050506040513d602081101561240d57600080fd5b81019080805190602001909291905050509050919050565b61242d6130ea565b600060208301905060408051908101604052808451815260200182815250915050919050565b606080600083600001518560000151016040519080825280601f01601f1916602001820160405280156124955781602001602082028038833980820191505090505b5091506020820190506124b18186602001518760000151612b91565b6124ca8560000151820185602001518660000151612b91565b819250505092915050565b6000806000600160009054906101000a900473ffffffffffffffffffffffffffffffffffffffff1673ffffffffffffffffffffffffffffffffffffffff16148061254957506000612547600160009054906101000a900473ffffffffffffffffffffffffffffffffffffffff16612b75565b145b1561255a576125586000612b80565b505b600160009054906101000a900473ffffffffffffffffffffffffffffffffffffffff1673ffffffffffffffffffffffffffffffffffffffff166338cc48316040518163ffffffff167c0100000000000000000000000000000000000000000000000000000000028152600401602060405180830381600087803b1580156125e057600080fd5b505af11580156125f4573d6000803e3d6000fd5b505050506040513d602081101561260a57600080fd5b810190808051906020019092919050505073ffffffffffffffffffffffffffffffffffffffff16600260009054906101000a900473ffffffffffffffffffffffffffffffffffffffff1673ffffffffffffffffffffffffffffffffffffffff1614151561277357600160009054906101000a900473ffffffffffffffffffffffffffffffffffffffff1673ffffffffffffffffffffffffffffffffffffffff166338cc48316040518163ffffffff167c0100000000000000000000000000000000000000000000000000000000028152600401602060405180830381600087803b1580156126f757600080fd5b505af115801561270b573d6000803e3d6000fd5b505050506040513d602081101561272157600080fd5b8101908080519060200190929190505050600260006101000a81548173ffffffffffffffffffffffffffffffffffffffff021916908373ffffffffffffffffffffffffffffffffffffffff1602179055505b600260009054906101000a900473ffffffffffffffffffffffffffffffffffffffff1673ffffffffffffffffffffffffffffffffffffffff1663524f3889856040518263ffffffff167c01000000000000000000000000000000000000000000000000000000000281526004018080602001828103825283818151815260200191508051906020019080838360005b8381101561281d578082015181840152602081019050612802565b50505050905090810190601f16801561284a5780820380516001836020036101000a031916815260200191505b5092505050602060405180830381600087803b15801561286957600080fd5b505af115801561287d573d6000803e3d6000fd5b505050506040513d602081101561289357600080fd5b8101908080519060200190929190505050905062030d403a02670de0b6b3a7640000018111156128c95760006001029150612a74565b600260009054906101000a900473ffffffffffffffffffffffffffffffffffffffff1673ffffffffffffffffffffffffffffffffffffffff1663adf59f9982600087876040518563ffffffff167c0100000000000000000000000000000000000000000000000000000000028152600401808481526020018060200180602001838103835285818151815260200191508051906020019080838360005b83811015612981578082015181840152602081019050612966565b50505050905090810190601f1680156129ae5780820380516001836020036101000a031916815260200191505b50838103825284818151815260200191508051906020019080838360005b838110156129e75780820151818401526020810190506129cc565b50505050905090810190601f168015612a145780820380516001836020036101000a031916815260200191505b50955050505050506020604051808303818588803b158015612a3557600080fd5b505af1158015612a49573d6000803e3d6000fd5b50505050506040513d6020811015612a6057600080fd5b810190808051906020019092919050505091505b5092915050565b600073ffffffffffffffffffffffffffffffffffffffff168173ffffffffffffffffffffffffffffffffffffffff1614151515612ab757600080fd5b8073ffffffffffffffffffffffffffffffffffffffff166000809054906101000a900473ffffffffffffffffffffffffffffffffffffffff1673ffffffffffffffffffffffffffffffffffffffff167f8be0079c531659141344cd1fd0a4f28419497f9722a3daafe3b4186f6b6457e060405160405180910390a3806000806101000a81548173ffffffffffffffffffffffffffffffffffffffff021916908373ffffffffffffffffffffffffffffffffffffffff16021790555050565b6000813b9050919050565b6000612b8a612bdc565b9050919050565b60005b602082101515612bb95782518452602084019350602083019250602082039150612b94565b6001826020036101000a0390508019835116818551168181178652505050505050565b600080612bfc731d3b2638a7cc9f2cb3d298a3da7a90b67e5506ed612b75565b1115612c9e57731d3b2638a7cc9f2cb3d298a3da7a90b67e5506ed600160006101000a81548173ffffffffffffffffffffffffffffffffffffffff021916908373ffffffffffffffffffffffffffffffffffffffff160217905550612c956040805190810160405280600b81526020017f6574685f6d61696e6e6574000000000000000000000000000000000000000000815250613072565b6001905061306f565b6000612cbd73c03a2615d5efaf5f49f60b7bb6583eaec212fdf1612b75565b1115612d5f5773c03a2615d5efaf5f49f60b7bb6583eaec212fdf1600160006101000a81548173ffffffffffffffffffffffffffffffffffffffff021916908373ffffffffffffffffffffffffffffffffffffffff160217905550612d566040805190810160405280600c81526020017f6574685f726f707374656e330000000000000000000000000000000000000000815250613072565b6001905061306f565b6000612d7e73b7a07bcf2ba2f2703b24c0691b5278999c59ac7e612b75565b1115612e205773b7a07bcf2ba2f2703b24c0691b5278999c59ac7e600160006101000a81548173ffffffffffffffffffffffffffffffffffffffff021916908373ffffffffffffffffffffffffffffffffffffffff160217905550612e176040805190810160405280600981526020017f6574685f6b6f76616e0000000000000000000000000000000000000000000000815250613072565b6001905061306f565b6000612e3f73146500cfd35b22e4a392fe0adc06de1a1368ed48612b75565b1115612ee15773146500cfd35b22e4a392fe0adc06de1a1368ed48600160006101000a81548173ffffffffffffffffffffffffffffffffffffffff021916908373ffffffffffffffffffffffffffffffffffffffff160217905550612ed86040805190810160405280600b81526020017f6574685f72696e6b656279000000000000000000000000000000000000000000815250613072565b6001905061306f565b6000612f00736f485c8bf6fc43ea212e93bbf8ce046c7f1cb475612b75565b1115612f6457736f485c8bf6fc43ea212e93bbf8ce046c7f1cb475600160006101000a81548173ffffffffffffffffffffffffffffffffffffffff021916908373ffffffffffffffffffffffffffffffffffffffff1602179055506001905061306f565b6000612f837320e12a1f859b3feae5fb2a0a32c18f5a65555bbf612b75565b1115612fe7577320e12a1f859b3feae5fb2a0a32c18f5a65555bbf600160006101000a81548173ffffffffffffffffffffffffffffffffffffffff021916908373ffffffffffffffffffffffffffffffffffffffff1602179055506001905061306f565b60006130067351efaf4c8b3c9afbd5ab9f4bbc82784ab6ef8faa612b75565b111561306a577351efaf4c8b3c9afbd5ab9f4bbc82784ab6ef8faa600160006101000a81548173ffffffffffffffffffffffffffffffffffffffff021916908373ffffffffffffffffffffffffffffffffffffffff1602179055506001905061306f565b600090505b90565b8060039080519060200190613088929190613104565b5050565b6101406040519081016040528060008152602001600081526020016000815260200160008152602001600081526020016000151581526020016000151581526020016000151581526020016000151581526020016000151581525090565b604080519081016040528060008152602001600081525090565b828054600181600116156101000203166002900490600052602060002090601f016020900481019282601f1061314557805160ff1916838001178555613173565b82800160010185558215613173579182015b82811115613172578251825591602001919060010190613157565b5b5090506131809190613184565b5090565b6131a691905b808211156131a257600081600090555060010161318a565b5090565b905600a165627a7a72305820cb523fb29e9ea92f63f154dcacf13dd7be98827f1f2f9131f609167d1177fd2a0029",
  "source": "pragma solidity ^0.4.24;\n\nimport \"./MatchManager.sol\";\n\ncontract BettingManager is MatchManager {\n    function bet(uint _matchId, bool _onRadiant) payable public matchNotStarted(_matchId) {\n        Match storage selectedMatch = matches[matchIdToId[_matchId]];\n        if (_onRadiant) {\n            selectedMatch.betsOnRadiant[msg.sender] += msg.value;\n            selectedMatch.radiantBets += msg.value;\n        } else {\n            selectedMatch.betsOnDire[msg.sender] += msg.value;\n            selectedMatch.direBets += msg.value;\n        }\n        selectedMatch.totalBets += msg.value;\n    }\n    \n    function getOwnBets(uint _matchId) public view returns (uint, uint) {\n        Match storage selectedMatch = matches[matchIdToId[_matchId]];\n        return (selectedMatch.betsOnRadiant[msg.sender], selectedMatch.betsOnDire[msg.sender]);\n    }\n    \n    function getTeamBets(uint _matchId) public view returns (uint, uint) {\n        Match storage selectedMatch = matches[matchIdToId[_matchId]];\n        return (selectedMatch.radiantBets, selectedMatch.direBets);\n    }\n    \n    function refund(uint _matchId, bool _onRadiant) public payable {\n        Match storage selectedMatch = matches[matchIdToId[_matchId]];\n        uint currentBet;\n        if (_onRadiant) {\n            currentBet = selectedMatch.betsOnRadiant[msg.sender];\n            selectedMatch.radiantBets -= currentBet;\n            selectedMatch.betsOnRadiant[msg.sender] = 0;\n            \n        } else {\n            currentBet = selectedMatch.betsOnDire[msg.sender];\n            selectedMatch.direBets -= currentBet;\n            selectedMatch.betsOnDire[msg.sender] = 0;\n \n        }\n        selectedMatch.totalBets -= currentBet;\n        msg.sender.transfer(currentBet);\n    }\n    \n    function setBets(uint _matchId) public payable {\n        Match storage selectedMatch = matches[matchIdToId[_matchId]];\n        require(selectedMatch.radiantWin == true || selectedMatch.direWin == true);\n        if(selectedMatch.radiantWin == true) {\n            selectedMatch.radiantBets += selectedMatch.direBets;\n            selectedMatch.direBets = 0;\n        }\n        if(selectedMatch.direWin == true) {\n            selectedMatch.direBets += selectedMatch.radiantBets;\n            selectedMatch.radiantBets = 0;\n        }\n    }\n    \n    function setBetsTest(uint _matchId, bool _result) public {\n        Match storage selectedMatch = matches[matchIdToId[_matchId]];\n        // require(selectedMatch.radiantWin == true || selectedMatch.direWin == true);\n        if(_result == true) {\n            selectedMatch.radiantBets += selectedMatch.direBets;\n            selectedMatch.direBets = 0;\n        }\n        if(_result == false) {\n            selectedMatch.direBets += selectedMatch.radiantBets;\n            selectedMatch.radiantBets = 0;\n        }\n    }\n    \n\n    function withdrawWinnings(uint _matchId, uint _amountWithdraw) public payable {\n        Match storage selectedMatch = matches[matchIdToId[_matchId]];\n        require(selectedMatch.radiantWin == true || selectedMatch.direWin == true);\n        msg.sender.transfer(_amountWithdraw);\n        selectedMatch.totalBets -= _amountWithdraw;\n        if(selectedMatch.radiantWin == true) {\n            selectedMatch.radiantBets -= _amountWithdraw;\n        }\n        if(selectedMatch.direWin == true) {\n            selectedMatch.direBets -= _amountWithdraw;\n        }\n    }\n    \n    function withdrawTesetWinnings(uint _matchId, uint _amountWithdraw, bool result) public payable {\n        Match storage selectedMatch = matches[matchIdToId[_matchId]];\n        // require(selectedMatch.radiantWin == true || selectedMatch.direWin == true);\n        msg.sender.transfer(_amountWithdraw);\n        selectedMatch.totalBets -= _amountWithdraw;\n        if(result == true) {\n            selectedMatch.radiantBets -= _amountWithdraw;\n        }\n        if(result == false) {\n            selectedMatch.direBets -= _amountWithdraw;\n        }\n        selectedMatch.winningsWithdraw[msg.sender] = true;\n    }\n}",
  "sourcePath": "/home/clippe/Code/KingsLand/DApp_Project/BountyRune-Server/contracts/BettingManager.sol",
  "compiler": {
    "name": "solc",
    "version": "0.4.24+commit.e67f0147.Emscripten.clang"
  },
  "schemaVersion": "2.0.1",
  "updatedAt": "2018-09-25T14:32:07.563Z"
}