{
  "contractName": "MatchManager",
  "abi": [
    {
      "constant": true,
      "inputs": [
        {
          "name": "",
          "type": "uint256"
        }
      ],
      "name": "matchIdToId",
      "outputs": [
        {
          "name": "",
          "type": "uint256"
        }
      ],
      "payable": false,
      "stateMutability": "view",
      "type": "function"
    },
    {
      "constant": true,
      "inputs": [
        {
          "name": "",
          "type": "uint256"
        }
      ],
      "name": "matches",
      "outputs": [
        {
          "name": "matchId",
          "type": "uint256"
        },
        {
          "name": "totalBets",
          "type": "uint256"
        },
        {
          "name": "radiantBets",
          "type": "uint256"
        },
        {
          "name": "direBets",
          "type": "uint256"
        },
        {
          "name": "startTime",
          "type": "uint256"
        },
        {
          "name": "radiantWin",
          "type": "bool"
        },
        {
          "name": "direWin",
          "type": "bool"
        },
        {
          "name": "withdrawable",
          "type": "bool"
        },
        {
          "name": "bettable",
          "type": "bool"
        },
        {
          "name": "refundable",
          "type": "bool"
        }
      ],
      "payable": false,
      "stateMutability": "view",
      "type": "function"
    },
    {
      "constant": false,
      "inputs": [],
      "name": "renounceOwnership",
      "outputs": [],
      "payable": false,
      "stateMutability": "nonpayable",
      "type": "function"
    },
    {
      "constant": true,
      "inputs": [],
      "name": "owner",
      "outputs": [
        {
          "name": "",
          "type": "address"
        }
      ],
      "payable": false,
      "stateMutability": "view",
      "type": "function"
    },
    {
      "constant": true,
      "inputs": [
        {
          "name": "",
          "type": "address"
        }
      ],
      "name": "addressIsAdmin",
      "outputs": [
        {
          "name": "",
          "type": "bool"
        }
      ],
      "payable": false,
      "stateMutability": "view",
      "type": "function"
    },
    {
      "constant": true,
      "inputs": [],
      "name": "selectedMatchId",
      "outputs": [
        {
          "name": "",
          "type": "uint256"
        }
      ],
      "payable": false,
      "stateMutability": "view",
      "type": "function"
    },
    {
      "constant": false,
      "inputs": [
        {
          "name": "_newOwner",
          "type": "address"
        }
      ],
      "name": "transferOwnership",
      "outputs": [],
      "payable": false,
      "stateMutability": "nonpayable",
      "type": "function"
    },
    {
      "inputs": [],
      "payable": true,
      "stateMutability": "payable",
      "type": "constructor"
    },
    {
      "payable": false,
      "stateMutability": "nonpayable",
      "type": "fallback"
    },
    {
      "anonymous": false,
      "inputs": [
        {
          "indexed": false,
          "name": "log",
          "type": "string"
        }
      ],
      "name": "LogNewOraclizeQuery",
      "type": "event"
    },
    {
      "anonymous": false,
      "inputs": [
        {
          "indexed": true,
          "name": "previousOwner",
          "type": "address"
        }
      ],
      "name": "OwnershipRenounced",
      "type": "event"
    },
    {
      "anonymous": false,
      "inputs": [
        {
          "indexed": true,
          "name": "previousOwner",
          "type": "address"
        },
        {
          "indexed": true,
          "name": "newOwner",
          "type": "address"
        }
      ],
      "name": "OwnershipTransferred",
      "type": "event"
    },
    {
      "constant": true,
      "inputs": [],
      "name": "matchesNumber",
      "outputs": [
        {
          "name": "",
          "type": "uint256"
        }
      ],
      "payable": false,
      "stateMutability": "view",
      "type": "function"
    },
    {
      "constant": false,
      "inputs": [
        {
          "name": "_address",
          "type": "address"
        }
      ],
      "name": "changeRole",
      "outputs": [],
      "payable": false,
      "stateMutability": "nonpayable",
      "type": "function"
    },
    {
      "constant": false,
      "inputs": [
        {
          "name": "_matchId",
          "type": "uint256"
        },
        {
          "name": "_startTime",
          "type": "uint256"
        }
      ],
      "name": "addMatch",
      "outputs": [],
      "payable": false,
      "stateMutability": "nonpayable",
      "type": "function"
    },
    {
      "constant": false,
      "inputs": [
        {
          "name": "_matchId",
          "type": "uint256"
        }
      ],
      "name": "startMatch",
      "outputs": [],
      "payable": false,
      "stateMutability": "nonpayable",
      "type": "function"
    },
    {
      "constant": false,
      "inputs": [
        {
          "name": "_matchId",
          "type": "uint256"
        },
        {
          "name": "_radiantWin",
          "type": "bool"
        }
      ],
      "name": "endMatch",
      "outputs": [],
      "payable": false,
      "stateMutability": "nonpayable",
      "type": "function"
    },
    {
      "constant": false,
      "inputs": [
        {
          "name": "_matchIdString",
          "type": "string"
        },
        {
          "name": "_matchIdUint",
          "type": "uint256"
        }
      ],
      "name": "getMatchWinner",
      "outputs": [],
      "payable": true,
      "stateMutability": "payable",
      "type": "function"
    },
    {
      "constant": false,
      "inputs": [
        {
          "name": "myid",
          "type": "bytes32"
        },
        {
          "name": "result",
          "type": "string"
        }
      ],
      "name": "__callback",
      "outputs": [],
      "payable": false,
      "stateMutability": "nonpayable",
      "type": "function"
    },
    {
      "constant": false,
      "inputs": [
        {
          "name": "myid",
          "type": "bytes32"
        },
        {
          "name": "result",
          "type": "string"
        },
        {
          "name": "proof",
          "type": "bytes"
        }
      ],
      "name": "__callback",
      "outputs": [],
      "payable": false,
      "stateMutability": "nonpayable",
      "type": "function"
    }
  ],
  "bytecode": "0x6080604052336000806101000a81548173ffffffffffffffffffffffffffffffffffffffff021916908373ffffffffffffffffffffffffffffffffffffffff160217905550730eddc9c6bb90017481a716b05176303b9db14bb3600160006101000a81548173ffffffffffffffffffffffffffffffffffffffff021916908373ffffffffffffffffffffffffffffffffffffffff1602179055506001600660003373ffffffffffffffffffffffffffffffffffffffff1673ffffffffffffffffffffffffffffffffffffffff16815260200190815260200160002060006101000a81548160ff0219169083151502179055506126b2806101006000396000f3006080604052600436106100db576000357c0100000000000000000000000000000000000000000000000000000000900463ffffffff168063038b2c92146100ed578063123886261461012657806327dc297e1461016757806338bbfa50146101de5780633991c09d1461029b5780634768d4ef146102d25780635b82853214610366578063715018a6146103cc5780638da5cb5b146103e3578063a305d7191461043a578063b5c4b23d1461047d578063bf725a84146104d8578063cdd0f1d014610505578063ec781f0f14610530578063f2fde38b1461055b575b3480156100e757600080fd5b50600080fd5b3480156100f957600080fd5b506101246004803603810190808035906020019092919080351515906020019092919050505061059e565b005b34801561013257600080fd5b5061015160048036038101908080359060200190929190505050610653565b6040518082815260200191505060405180910390f35b34801561017357600080fd5b506101dc6004803603810190808035600019169060200190929190803590602001908201803590602001908080601f016020809104026020016040519081016040528093929190818152602001838380828437820191505050505050919291929050505061066b565b005b3480156101ea57600080fd5b506102996004803603810190808035600019169060200190929190803590602001908201803590602001908080601f0160208091040260200160405190810160405280939291908181526020018383808284378201915050505050509192919290803590602001908201803590602001908080601f016020809104026020016040519081016040528093929190818152602001838380828437820191505050505050919291929050505061091c565b005b3480156102a757600080fd5b506102d06004803603810190808035906020019092919080359060200190929190505050610921565b005b3480156102de57600080fd5b506102fd60048036038101908080359060200190929190505050610b0d565b604051808b81526020018a815260200189815260200188815260200187815260200186151515158152602001851515151581526020018415151515815260200183151515158152602001821515151581526020019a505050505050505050505060405180910390f35b6103ca600480360381019080803590602001908201803590602001908080601f016020809104026020016040519081016040528093929190818152602001838380828437820191505050505050919291929080359060200190929190505050610bb1565b005b3480156103d857600080fd5b506103e1610e34565b005b3480156103ef57600080fd5b506103f8610f36565b604051808273ffffffffffffffffffffffffffffffffffffffff1673ffffffffffffffffffffffffffffffffffffffff16815260200191505060405180910390f35b34801561044657600080fd5b5061047b600480360381019080803573ffffffffffffffffffffffffffffffffffffffff169060200190929190505050610f5b565b005b34801561048957600080fd5b506104be600480360381019080803573ffffffffffffffffffffffffffffffffffffffff169060200190929190505050611061565b604051808215151515815260200191505060405180910390f35b3480156104e457600080fd5b5061050360048036038101908080359060200190929190505050611081565b005b34801561051157600080fd5b5061051a611152565b6040518082815260200191505060405180910390f35b34801561053c57600080fd5b50610545611158565b6040518082815260200191505060405180910390f35b34801561056757600080fd5b5061059c600480360381019080803573ffffffffffffffffffffffffffffffffffffffff169060200190929190505050611165565b005b600060011515600660003373ffffffffffffffffffffffffffffffffffffffff1673ffffffffffffffffffffffffffffffffffffffff16815260200190815260200160002060009054906101000a900460ff1615151415156105ff57600080fd5b6008600760008581526020019081526020016000205481548110151561062157fe5b9060005260206000209060090201905060018160050160026101000a81548160ff021916908315150217905550505050565b60076020528060005260406000206000915090505481565b60006106756111cc565b73ffffffffffffffffffffffffffffffffffffffff163373ffffffffffffffffffffffffffffffffffffffff161415156106ae57600080fd5b604051806000019050604051809103902060001916826040518082805190602001908083835b6020831015156106f957805182526020820191506020810190506020830392506106d4565b6001836020036101000a0380198251168184511680821785525050505050509050019150506040518091039020600019161415151561073757600080fd5b60086007600060095481526020019081526020016000205481548110151561075b57fe5b9060005260206000209060090201905060405180807f52616469616e74000000000000000000000000000000000000000000000000008152506007019050604051809103902060001916826040518082805190602001908083835b6020831015156107db57805182526020820191506020810190506020830392506107b6565b6001836020036101000a03801982511681845116808217855250505050505090500191505060405180910390206000191614156108345760018160050160006101000a81548160ff0219169083151502179055506108fa565b60405180807f44697265000000000000000000000000000000000000000000000000000000008152506004019050604051809103902060001916826040518082805190602001908083835b6020831015156108a4578051825260208201915060208101905060208303925061087f565b6001836020036101000a03801982511681845116808217855250505050505090500191505060405180910390206000191614156108f95760018160050160016101000a81548160ff0219169083151502179055505b5b60018160050160026101000a81548160ff021916908315150217905550505050565b505050565b610929612569565b6000836000600760008381526020019081526020016000205414151561094e57600080fd5b60011515600660003373ffffffffffffffffffffffffffffffffffffffff1673ffffffffffffffffffffffffffffffffffffffff16815260200190815260200160002060009054906101000a900460ff1615151415156109ad57600080fd5b8483600001818152505060018361010001901515908115158152505060018361012001901515908115158152505083836080018181525050600160088490806001815401808255809150509060018203906000526020600020906009020160009091929091909150600082015181600001556020820151816001015560408201518160020155606082015181600301556080820151816004015560a08201518160050160006101000a81548160ff02191690831515021790555060c08201518160050160016101000a81548160ff02191690831515021790555060e08201518160050160026101000a81548160ff0219169083151502179055506101008201518160050160036101000a81548160ff0219169083151502179055506101208201518160050160046101000a81548160ff02191690831515021790555050500391508160076000878152602001908152602001600020819055505050505050565b600881815481101515610b1c57fe5b90600052602060002090600902016000915090508060000154908060010154908060020154908060030154908060040154908060050160009054906101000a900460ff16908060050160019054906101000a900460ff16908060050160029054906101000a900460ff16908060050160039054906101000a900460ff16908060050160049054906101000a900460ff1690508a565b6060803073ffffffffffffffffffffffffffffffffffffffff1631610c0a6040805190810160405280600381526020017f55524c000000000000000000000000000000000000000000000000000000000081525061152e565b1115610c7e576040517f08c379a00000000000000000000000000000000000000000000000000000000081526004018080602001828103825260128152602001807f4e6f7420656e6f7567682062616c616e6365000000000000000000000000000081525060200191505060405180910390fd5b7f621c2856e3b87f81235f8ac8a22bbb40a0142961960710d00b2b6c380902b57e6040518080602001828103825260358152602001807f4f7261636c697a65207175657279207761732073656e742c207374616e64696e81526020017f6720627920666f722074686520616e737765722e2e000000000000000000000081525060400191505060405180910390a1610d8b610d1885611902565b610d7d606060405190810160405280603a81526020017f6a736f6e2868747470733a2f2f626f756e74792d72756e652d6272696467652e81526020017f6865726f6b756170702e636f6d2f726573756c742f646f74612f000000000000815250611902565b61193090919063ffffffff16565b9150610de5610dce6040805190810160405280600881526020017f292e77696e6e6572000000000000000000000000000000000000000000000000815250611902565b610dd784611902565b61193090919063ffffffff16565b905082600981905550610e2d6040805190810160405280600381526020017f55524c0000000000000000000000000000000000000000000000000000000000815250826119b2565b5050505050565b6000809054906101000a900473ffffffffffffffffffffffffffffffffffffffff1673ffffffffffffffffffffffffffffffffffffffff163373ffffffffffffffffffffffffffffffffffffffff16141515610e8f57600080fd5b6000809054906101000a900473ffffffffffffffffffffffffffffffffffffffff1673ffffffffffffffffffffffffffffffffffffffff167ff8df31144d9c2f0f6b59d69b8b98abd5459d07f2742c4df920b25aae33c6482060405160405180910390a260008060006101000a81548173ffffffffffffffffffffffffffffffffffffffff021916908373ffffffffffffffffffffffffffffffffffffffff160217905550565b6000809054906101000a900473ffffffffffffffffffffffffffffffffffffffff1681565b60011515600660003373ffffffffffffffffffffffffffffffffffffffff1673ffffffffffffffffffffffffffffffffffffffff16815260200190815260200160002060009054906101000a900460ff161515141515610fba57600080fd5b600660008273ffffffffffffffffffffffffffffffffffffffff1673ffffffffffffffffffffffffffffffffffffffff16815260200190815260200160002060009054906101000a900460ff1615600660008373ffffffffffffffffffffffffffffffffffffffff1673ffffffffffffffffffffffffffffffffffffffff16815260200190815260200160002060006101000a81548160ff02191690831515021790555050565b60066020528060005260406000206000915054906101000a900460ff1681565b600060011515600660003373ffffffffffffffffffffffffffffffffffffffff1673ffffffffffffffffffffffffffffffffffffffff16815260200190815260200160002060009054906101000a900460ff1615151415156110e257600080fd5b6008600760008481526020019081526020016000205481548110151561110457fe5b9060005260206000209060090201905060008160050160036101000a81548160ff02191690831515021790555060008160050160046101000a81548160ff0219169083151502179055505050565b60095481565b6000600880549050905090565b6000809054906101000a900473ffffffffffffffffffffffffffffffffffffffff1673ffffffffffffffffffffffffffffffffffffffff163373ffffffffffffffffffffffffffffffffffffffff161415156111c057600080fd5b6111c981611f58565b50565b600080600160009054906101000a900473ffffffffffffffffffffffffffffffffffffffff1673ffffffffffffffffffffffffffffffffffffffff16148061123e5750600061123c600160009054906101000a900473ffffffffffffffffffffffffffffffffffffffff16612052565b145b1561124f5761124d600061205d565b505b600160009054906101000a900473ffffffffffffffffffffffffffffffffffffffff1673ffffffffffffffffffffffffffffffffffffffff166338cc48316040518163ffffffff167c0100000000000000000000000000000000000000000000000000000000028152600401602060405180830381600087803b1580156112d557600080fd5b505af11580156112e9573d6000803e3d6000fd5b505050506040513d60208110156112ff57600080fd5b810190808051906020019092919050505073ffffffffffffffffffffffffffffffffffffffff16600260009054906101000a900473ffffffffffffffffffffffffffffffffffffffff1673ffffffffffffffffffffffffffffffffffffffff1614151561146857600160009054906101000a900473ffffffffffffffffffffffffffffffffffffffff1673ffffffffffffffffffffffffffffffffffffffff166338cc48316040518163ffffffff167c0100000000000000000000000000000000000000000000000000000000028152600401602060405180830381600087803b1580156113ec57600080fd5b505af1158015611400573d6000803e3d6000fd5b505050506040513d602081101561141657600080fd5b8101908080519060200190929190505050600260006101000a81548173ffffffffffffffffffffffffffffffffffffffff021916908373ffffffffffffffffffffffffffffffffffffffff1602179055505b600260009054906101000a900473ffffffffffffffffffffffffffffffffffffffff1673ffffffffffffffffffffffffffffffffffffffff1663c281d19e6040518163ffffffff167c0100000000000000000000000000000000000000000000000000000000028152600401602060405180830381600087803b1580156114ee57600080fd5b505af1158015611502573d6000803e3d6000fd5b505050506040513d602081101561151857600080fd5b8101908080519060200190929190505050905090565b600080600160009054906101000a900473ffffffffffffffffffffffffffffffffffffffff1673ffffffffffffffffffffffffffffffffffffffff1614806115a05750600061159e600160009054906101000a900473ffffffffffffffffffffffffffffffffffffffff16612052565b145b156115b1576115af600061205d565b505b600160009054906101000a900473ffffffffffffffffffffffffffffffffffffffff1673ffffffffffffffffffffffffffffffffffffffff166338cc48316040518163ffffffff167c0100000000000000000000000000000000000000000000000000000000028152600401602060405180830381600087803b15801561163757600080fd5b505af115801561164b573d6000803e3d6000fd5b505050506040513d602081101561166157600080fd5b810190808051906020019092919050505073ffffffffffffffffffffffffffffffffffffffff16600260009054906101000a900473ffffffffffffffffffffffffffffffffffffffff1673ffffffffffffffffffffffffffffffffffffffff161415156117ca57600160009054906101000a900473ffffffffffffffffffffffffffffffffffffffff1673ffffffffffffffffffffffffffffffffffffffff166338cc48316040518163ffffffff167c0100000000000000000000000000000000000000000000000000000000028152600401602060405180830381600087803b15801561174e57600080fd5b505af1158015611762573d6000803e3d6000fd5b505050506040513d602081101561177857600080fd5b8101908080519060200190929190505050600260006101000a81548173ffffffffffffffffffffffffffffffffffffffff021916908373ffffffffffffffffffffffffffffffffffffffff1602179055505b600260009054906101000a900473ffffffffffffffffffffffffffffffffffffffff1673ffffffffffffffffffffffffffffffffffffffff1663524f3889836040518263ffffffff167c01000000000000000000000000000000000000000000000000000000000281526004018080602001828103825283818151815260200191508051906020019080838360005b83811015611874578082015181840152602081019050611859565b50505050905090810190601f1680156118a15780820380516001836020036101000a031916815260200191505b5092505050602060405180830381600087803b1580156118c057600080fd5b505af11580156118d4573d6000803e3d6000fd5b505050506040513d60208110156118ea57600080fd5b81019080805190602001909291905050509050919050565b61190a6125c7565b600060208301905060408051908101604052808451815260200182815250915050919050565b606080600083600001518560000151016040519080825280601f01601f1916602001820160405280156119725781602001602082028038833980820191505090505b50915060208201905061198e818660200151876000015161206e565b6119a7856000015182018560200151866000015161206e565b819250505092915050565b6000806000600160009054906101000a900473ffffffffffffffffffffffffffffffffffffffff1673ffffffffffffffffffffffffffffffffffffffff161480611a2657506000611a24600160009054906101000a900473ffffffffffffffffffffffffffffffffffffffff16612052565b145b15611a3757611a35600061205d565b505b600160009054906101000a900473ffffffffffffffffffffffffffffffffffffffff1673ffffffffffffffffffffffffffffffffffffffff166338cc48316040518163ffffffff167c0100000000000000000000000000000000000000000000000000000000028152600401602060405180830381600087803b158015611abd57600080fd5b505af1158015611ad1573d6000803e3d6000fd5b505050506040513d6020811015611ae757600080fd5b810190808051906020019092919050505073ffffffffffffffffffffffffffffffffffffffff16600260009054906101000a900473ffffffffffffffffffffffffffffffffffffffff1673ffffffffffffffffffffffffffffffffffffffff16141515611c5057600160009054906101000a900473ffffffffffffffffffffffffffffffffffffffff1673ffffffffffffffffffffffffffffffffffffffff166338cc48316040518163ffffffff167c0100000000000000000000000000000000000000000000000000000000028152600401602060405180830381600087803b158015611bd457600080fd5b505af1158015611be8573d6000803e3d6000fd5b505050506040513d6020811015611bfe57600080fd5b8101908080519060200190929190505050600260006101000a81548173ffffffffffffffffffffffffffffffffffffffff021916908373ffffffffffffffffffffffffffffffffffffffff1602179055505b600260009054906101000a900473ffffffffffffffffffffffffffffffffffffffff1673ffffffffffffffffffffffffffffffffffffffff1663524f3889856040518263ffffffff167c01000000000000000000000000000000000000000000000000000000000281526004018080602001828103825283818151815260200191508051906020019080838360005b83811015611cfa578082015181840152602081019050611cdf565b50505050905090810190601f168015611d275780820380516001836020036101000a031916815260200191505b5092505050602060405180830381600087803b158015611d4657600080fd5b505af1158015611d5a573d6000803e3d6000fd5b505050506040513d6020811015611d7057600080fd5b8101908080519060200190929190505050905062030d403a02670de0b6b3a764000001811115611da65760006001029150611f51565b600260009054906101000a900473ffffffffffffffffffffffffffffffffffffffff1673ffffffffffffffffffffffffffffffffffffffff1663adf59f9982600087876040518563ffffffff167c0100000000000000000000000000000000000000000000000000000000028152600401808481526020018060200180602001838103835285818151815260200191508051906020019080838360005b83811015611e5e578082015181840152602081019050611e43565b50505050905090810190601f168015611e8b5780820380516001836020036101000a031916815260200191505b50838103825284818151815260200191508051906020019080838360005b83811015611ec4578082015181840152602081019050611ea9565b50505050905090810190601f168015611ef15780820380516001836020036101000a031916815260200191505b50955050505050506020604051808303818588803b158015611f1257600080fd5b505af1158015611f26573d6000803e3d6000fd5b50505050506040513d6020811015611f3d57600080fd5b810190808051906020019092919050505091505b5092915050565b600073ffffffffffffffffffffffffffffffffffffffff168173ffffffffffffffffffffffffffffffffffffffff1614151515611f9457600080fd5b8073ffffffffffffffffffffffffffffffffffffffff166000809054906101000a900473ffffffffffffffffffffffffffffffffffffffff1673ffffffffffffffffffffffffffffffffffffffff167f8be0079c531659141344cd1fd0a4f28419497f9722a3daafe3b4186f6b6457e060405160405180910390a3806000806101000a81548173ffffffffffffffffffffffffffffffffffffffff021916908373ffffffffffffffffffffffffffffffffffffffff16021790555050565b6000813b9050919050565b60006120676120b9565b9050919050565b60005b6020821015156120965782518452602084019350602083019250602082039150612071565b6001826020036101000a0390508019835116818551168181178652505050505050565b6000806120d9731d3b2638a7cc9f2cb3d298a3da7a90b67e5506ed612052565b111561217b57731d3b2638a7cc9f2cb3d298a3da7a90b67e5506ed600160006101000a81548173ffffffffffffffffffffffffffffffffffffffff021916908373ffffffffffffffffffffffffffffffffffffffff1602179055506121726040805190810160405280600b81526020017f6574685f6d61696e6e657400000000000000000000000000000000000000000081525061254f565b6001905061254c565b600061219a73c03a2615d5efaf5f49f60b7bb6583eaec212fdf1612052565b111561223c5773c03a2615d5efaf5f49f60b7bb6583eaec212fdf1600160006101000a81548173ffffffffffffffffffffffffffffffffffffffff021916908373ffffffffffffffffffffffffffffffffffffffff1602179055506122336040805190810160405280600c81526020017f6574685f726f707374656e33000000000000000000000000000000000000000081525061254f565b6001905061254c565b600061225b73b7a07bcf2ba2f2703b24c0691b5278999c59ac7e612052565b11156122fd5773b7a07bcf2ba2f2703b24c0691b5278999c59ac7e600160006101000a81548173ffffffffffffffffffffffffffffffffffffffff021916908373ffffffffffffffffffffffffffffffffffffffff1602179055506122f46040805190810160405280600981526020017f6574685f6b6f76616e000000000000000000000000000000000000000000000081525061254f565b6001905061254c565b600061231c73146500cfd35b22e4a392fe0adc06de1a1368ed48612052565b11156123be5773146500cfd35b22e4a392fe0adc06de1a1368ed48600160006101000a81548173ffffffffffffffffffffffffffffffffffffffff021916908373ffffffffffffffffffffffffffffffffffffffff1602179055506123b56040805190810160405280600b81526020017f6574685f72696e6b65627900000000000000000000000000000000000000000081525061254f565b6001905061254c565b60006123dd736f485c8bf6fc43ea212e93bbf8ce046c7f1cb475612052565b111561244157736f485c8bf6fc43ea212e93bbf8ce046c7f1cb475600160006101000a81548173ffffffffffffffffffffffffffffffffffffffff021916908373ffffffffffffffffffffffffffffffffffffffff1602179055506001905061254c565b60006124607320e12a1f859b3feae5fb2a0a32c18f5a65555bbf612052565b11156124c4577320e12a1f859b3feae5fb2a0a32c18f5a65555bbf600160006101000a81548173ffffffffffffffffffffffffffffffffffffffff021916908373ffffffffffffffffffffffffffffffffffffffff1602179055506001905061254c565b60006124e37351efaf4c8b3c9afbd5ab9f4bbc82784ab6ef8faa612052565b1115612547577351efaf4c8b3c9afbd5ab9f4bbc82784ab6ef8faa600160006101000a81548173ffffffffffffffffffffffffffffffffffffffff021916908373ffffffffffffffffffffffffffffffffffffffff1602179055506001905061254c565b600090505b90565b80600390805190602001906125659291906125e1565b5050565b6101406040519081016040528060008152602001600081526020016000815260200160008152602001600081526020016000151581526020016000151581526020016000151581526020016000151581526020016000151581525090565b604080519081016040528060008152602001600081525090565b828054600181600116156101000203166002900490600052602060002090601f016020900481019282601f1061262257805160ff1916838001178555612650565b82800160010185558215612650579182015b8281111561264f578251825591602001919060010190612634565b5b50905061265d9190612661565b5090565b61268391905b8082111561267f576000816000905550600101612667565b5090565b905600a165627a7a72305820f376428a5f7ad1e423fd14a912288af442fa51ca6752409d9c755df66d88e9350029",
  "source": "pragma solidity ^0.4.24;\nimport \"openzeppelin-solidity/contracts/ownership/Ownable.sol\";\nimport \"installed_contracts/oraclize-api/contracts/usingOraclize.sol\";\nimport \"./strings.sol\";\n\ncontract MatchManager is Ownable, usingOraclize {\n  event LogNewOraclizeQuery(string log);\n  using strings for *;\n  \n  struct Match {\n        uint matchId;\n        uint totalBets;\n        uint radiantBets;\n        uint direBets;\n        uint startTime;\n        bool radiantWin;\n        bool direWin;\n        bool withdrawable;\n        bool bettable;\n        bool refundable;\n        mapping(address => uint) betsOnRadiant;\n        mapping(address => uint) betsOnDire;\n        mapping(address => bool) winningsWithdraw;\n    }\n    \n    \n    mapping(address => bool) public addressIsAdmin;\n    mapping(uint => uint) public matchIdToId;\n    Match[] public matches;\n    uint public selectedMatchId;\n    \n    constructor() payable public {\n        OAR = OraclizeAddrResolverI(0x0eDDc9C6BB90017481A716b05176303B9DB14BB3);\n        addressIsAdmin[msg.sender] = true;\n    }\n\n    function() public {\n        revert();\n    }\n    \n    modifier matchNotExisting(uint matchId) {\n        require(matchIdToId[matchId] == 0);\n        _;\n    }\n    \n    modifier onlyAdmin() {\n        require(addressIsAdmin[msg.sender] == true);\n        _;    \n    }\n\n    modifier matchIsNotFinish(uint _matchId) {\n        Match memory selectedMatch = matches[matchIdToId[_matchId]];\n        require(selectedMatch.radiantWin == false && selectedMatch.direWin == false);\n        _;\n    }\n    \n    modifier matchIsFinish(uint _matchId) {\n        Match memory selectedMatch = matches[matchIdToId[_matchId]];\n        require(selectedMatch.radiantWin == true || selectedMatch.direWin == true);\n        _;\n    }\n\n    modifier matchNotStarted(uint _matchId) {\n        Match memory selectedMatch = matches[matchIdToId[_matchId]];\n        require(selectedMatch.bettable == true);\n        require(selectedMatch.refundable == true);\n        _;\n    }\n   \n    function matchesNumber() public view returns (uint) {\n        return matches.length;\n    }\n\n    function changeRole(address _address) onlyAdmin public {\n        addressIsAdmin[_address] = !addressIsAdmin[_address];\n    }\n    \n    function addMatch\n    (\n        uint _matchId,\n        uint _startTime\n    ) \n        public\n        matchNotExisting(_matchId)\n        onlyAdmin\n    {\n        Match memory currentMatch;\n        currentMatch.matchId = _matchId;\n        currentMatch.bettable = true;\n        currentMatch.refundable = true;\n        currentMatch.startTime = _startTime;\n        \n        uint id = matches.push(currentMatch) - 1;\n        matchIdToId[_matchId] = id;\n    }\n    \n    function startMatch(uint _matchId) public onlyAdmin {\n        Match storage selectedMatch = matches[matchIdToId[_matchId]];\n        selectedMatch.bettable = false;\n        selectedMatch.refundable = false;\n    }\n    \n    function endMatch(uint _matchId, bool _radiantWin) public onlyAdmin {\n        Match storage selectedMatch = matches[matchIdToId[_matchId]];\n        selectedMatch.withdrawable = true;\n    }\n    \n    function getMatchWinner(string _matchIdString, uint _matchIdUint) public payable {\n        if (oraclize_getPrice(\"URL\") > address(this).balance) {\n            revert(\"Not enough balance\");\n            emit LogNewOraclizeQuery(\"Oraclize query was NOT sent, please add some ETH to cover for the query fee\");\n        } else {\n            emit LogNewOraclizeQuery(\"Oraclize query was sent, standing by for the answer..\");\n            string memory query = \"json(https://bounty-rune-bridge.herokuapp.com/result/dota/\".toSlice().concat(_matchIdString.toSlice());\n            string memory finalQuery = query.toSlice().concat(\").winner\".toSlice());\n            selectedMatchId = _matchIdUint;\n            oraclize_query(\"URL\", finalQuery);\n        }\n    }\n    \n    function __callback(bytes32 myid, string result) {\n        require(msg.sender == oraclize_cbAddress());\n        require(keccak256(result) != keccak256(\"\"));\n         Match storage selectedMatch = matches[matchIdToId[selectedMatchId]];\n        if(keccak256(result) == keccak256('Radiant')) {\n            selectedMatch.radiantWin = true;\n        } else if (keccak256(result) == keccak256('Dire')){\n            selectedMatch.direWin = true;\n        }\n        selectedMatch.withdrawable = true;\n  }\n\n}\n\n\n",
  "sourcePath": "/home/clippe/Code/KingsLand/DApp_Project/BountyRune-Server/contracts/MatchManager.sol",
  "compiler": {
    "name": "solc",
    "version": "0.4.24+commit.e67f0147.Emscripten.clang"
  },
  "schemaVersion": "2.0.1",
  "updatedAt": "2018-09-25T14:32:07.569Z"
}