{
  "contractName": "MatchManager",
  "abi": [
    {
      "constant": true,
      "inputs": [
        {
          "name": "",
          "type": "uint256"
        }
      ],
      "name": "matchIdToId",
      "outputs": [
        {
          "name": "",
          "type": "uint256"
        }
      ],
      "payable": false,
      "stateMutability": "view",
      "type": "function"
    },
    {
      "constant": true,
      "inputs": [
        {
          "name": "",
          "type": "uint256"
        }
      ],
      "name": "matches",
      "outputs": [
        {
          "name": "matchId",
          "type": "uint256"
        },
        {
          "name": "poolPrice",
          "type": "uint256"
        },
        {
          "name": "radiantBets",
          "type": "uint256"
        },
        {
          "name": "direBets",
          "type": "uint256"
        },
        {
          "name": "radiantWin",
          "type": "bool"
        },
        {
          "name": "direWin",
          "type": "bool"
        },
        {
          "name": "withdrawable",
          "type": "bool"
        },
        {
          "name": "bettable",
          "type": "bool"
        },
        {
          "name": "refundable",
          "type": "bool"
        }
      ],
      "payable": false,
      "stateMutability": "view",
      "type": "function"
    },
    {
      "constant": false,
      "inputs": [],
      "name": "renounceOwnership",
      "outputs": [],
      "payable": false,
      "stateMutability": "nonpayable",
      "type": "function"
    },
    {
      "constant": true,
      "inputs": [],
      "name": "owner",
      "outputs": [
        {
          "name": "",
          "type": "address"
        }
      ],
      "payable": false,
      "stateMutability": "view",
      "type": "function"
    },
    {
      "constant": true,
      "inputs": [
        {
          "name": "",
          "type": "address"
        }
      ],
      "name": "addressIsAdmin",
      "outputs": [
        {
          "name": "",
          "type": "bool"
        }
      ],
      "payable": false,
      "stateMutability": "view",
      "type": "function"
    },
    {
      "constant": true,
      "inputs": [],
      "name": "selectedMatchId",
      "outputs": [
        {
          "name": "",
          "type": "uint256"
        }
      ],
      "payable": false,
      "stateMutability": "view",
      "type": "function"
    },
    {
      "constant": false,
      "inputs": [
        {
          "name": "_newOwner",
          "type": "address"
        }
      ],
      "name": "transferOwnership",
      "outputs": [],
      "payable": false,
      "stateMutability": "nonpayable",
      "type": "function"
    },
    {
      "inputs": [],
      "payable": true,
      "stateMutability": "payable",
      "type": "constructor"
    },
    {
      "anonymous": false,
      "inputs": [
        {
          "indexed": false,
          "name": "log",
          "type": "string"
        }
      ],
      "name": "LogNewOraclizeQuery",
      "type": "event"
    },
    {
      "anonymous": false,
      "inputs": [
        {
          "indexed": true,
          "name": "previousOwner",
          "type": "address"
        }
      ],
      "name": "OwnershipRenounced",
      "type": "event"
    },
    {
      "anonymous": false,
      "inputs": [
        {
          "indexed": true,
          "name": "previousOwner",
          "type": "address"
        },
        {
          "indexed": true,
          "name": "newOwner",
          "type": "address"
        }
      ],
      "name": "OwnershipTransferred",
      "type": "event"
    },
    {
      "constant": true,
      "inputs": [],
      "name": "matchesNumber",
      "outputs": [
        {
          "name": "",
          "type": "uint256"
        }
      ],
      "payable": false,
      "stateMutability": "view",
      "type": "function"
    },
    {
      "constant": false,
      "inputs": [
        {
          "name": "_address",
          "type": "address"
        }
      ],
      "name": "changeRole",
      "outputs": [],
      "payable": false,
      "stateMutability": "nonpayable",
      "type": "function"
    },
    {
      "constant": false,
      "inputs": [
        {
          "name": "_matchId",
          "type": "uint256"
        }
      ],
      "name": "addMatch",
      "outputs": [],
      "payable": false,
      "stateMutability": "nonpayable",
      "type": "function"
    },
    {
      "constant": false,
      "inputs": [
        {
          "name": "_matchId",
          "type": "uint256"
        }
      ],
      "name": "startMatch",
      "outputs": [],
      "payable": false,
      "stateMutability": "nonpayable",
      "type": "function"
    },
    {
      "constant": false,
      "inputs": [
        {
          "name": "_matchId",
          "type": "uint256"
        }
      ],
      "name": "endMatch",
      "outputs": [],
      "payable": false,
      "stateMutability": "nonpayable",
      "type": "function"
    },
    {
      "constant": false,
      "inputs": [
        {
          "name": "_matchIdString",
          "type": "string"
        },
        {
          "name": "_matchIdUint",
          "type": "uint256"
        }
      ],
      "name": "getMatchWinner",
      "outputs": [],
      "payable": true,
      "stateMutability": "payable",
      "type": "function"
    },
    {
      "constant": false,
      "inputs": [
        {
          "name": "myid",
          "type": "bytes32"
        },
        {
          "name": "result",
          "type": "string"
        }
      ],
      "name": "__callback",
      "outputs": [],
      "payable": false,
      "stateMutability": "nonpayable",
      "type": "function"
    },
    {
      "constant": false,
      "inputs": [
        {
          "name": "myid",
          "type": "bytes32"
        },
        {
          "name": "result",
          "type": "string"
        },
        {
          "name": "proof",
          "type": "bytes"
        }
      ],
      "name": "__callback",
      "outputs": [],
      "payable": false,
      "stateMutability": "nonpayable",
      "type": "function"
    }
  ],
  "bytecode": "0x6080604052336000806101000a81548173ffffffffffffffffffffffffffffffffffffffff021916908373ffffffffffffffffffffffffffffffffffffffff160217905550736f485c8bf6fc43ea212e93bbf8ce046c7f1cb475600160006101000a81548173ffffffffffffffffffffffffffffffffffffffff021916908373ffffffffffffffffffffffffffffffffffffffff1602179055506001600660003373ffffffffffffffffffffffffffffffffffffffff1673ffffffffffffffffffffffffffffffffffffffff16815260200190815260200160002060006101000a81548160ff0219169083151502179055506126c2806101006000396000f3006080604052600436106100db576000357c0100000000000000000000000000000000000000000000000000000000900463ffffffff1680630eaa8532146100e0578063123886261461010d57806327dc297e1461014e57806338bbfa50146101c55780634768d4ef1461028257806353088b941461030f5780635b8285321461033c578063715018a6146103a25780638da5cb5b146103b9578063a305d71914610410578063b5c4b23d14610453578063bf725a84146104ae578063cdd0f1d0146104db578063ec781f0f14610506578063f2fde38b14610531575b600080fd5b3480156100ec57600080fd5b5061010b60048036038101908080359060200190929190505050610574565b005b34801561011957600080fd5b5061013860048036038101908080359060200190929190505050610628565b6040518082815260200191505060405180910390f35b34801561015a57600080fd5b506101c36004803603810190808035600019169060200190929190803590602001908201803590602001908080601f0160208091040260200160405190810160405280939291908181526020018383808284378201915050505050509192919290505050610640565b005b3480156101d157600080fd5b506102806004803603810190808035600019169060200190929190803590602001908201803590602001908080601f0160208091040260200160405190810160405280939291908181526020018383808284378201915050505050509192919290803590602001908201803590602001908080601f01602080910402602001604051908101604052809392919081815260200183838082843782019150505050505091929192905050506108f1565b005b34801561028e57600080fd5b506102ad600480360381019080803590602001909291905050506108f6565b604051808a81526020018981526020018881526020018781526020018615151515815260200185151515158152602001841515151581526020018315151515815260200182151515158152602001995050505050505050505060405180910390f35b34801561031b57600080fd5b5061033a60048036038101908080359060200190929190505050610994565b005b6103a0600480360381019080803590602001908201803590602001908080601f016020809104026020016040519081016040528093929190818152602001838380828437820191505050505050919291929080359060200190929190505050610b69565b005b3480156103ae57600080fd5b506103b7610e4b565b005b3480156103c557600080fd5b506103ce610f4d565b604051808273ffffffffffffffffffffffffffffffffffffffff1673ffffffffffffffffffffffffffffffffffffffff16815260200191505060405180910390f35b34801561041c57600080fd5b50610451600480360381019080803573ffffffffffffffffffffffffffffffffffffffff169060200190929190505050610f72565b005b34801561045f57600080fd5b50610494600480360381019080803573ffffffffffffffffffffffffffffffffffffffff169060200190929190505050611078565b604051808215151515815260200191505060405180910390f35b3480156104ba57600080fd5b506104d960048036038101908080359060200190929190505050611098565b005b3480156104e757600080fd5b506104f0611169565b6040518082815260200191505060405180910390f35b34801561051257600080fd5b5061051b61116f565b6040518082815260200191505060405180910390f35b34801561053d57600080fd5b50610572600480360381019080803573ffffffffffffffffffffffffffffffffffffffff16906020019092919050505061117c565b005b600060011515600660003373ffffffffffffffffffffffffffffffffffffffff1673ffffffffffffffffffffffffffffffffffffffff16815260200190815260200160002060009054906101000a900460ff1615151415156105d557600080fd5b600860076000848152602001908152602001600020548154811015156105f757fe5b9060005260206000209060090201905060018160040160026101000a81548160ff0219169083151502179055505050565b60076020528060005260406000206000915090505481565b600061064a6111e3565b73ffffffffffffffffffffffffffffffffffffffff163373ffffffffffffffffffffffffffffffffffffffff1614151561068357600080fd5b604051806000019050604051809103902060001916826040518082805190602001908083835b6020831015156106ce57805182526020820191506020810190506020830392506106a9565b6001836020036101000a0380198251168184511680821785525050505050509050019150506040518091039020600019161415151561070c57600080fd5b60086007600060095481526020019081526020016000205481548110151561073057fe5b9060005260206000209060090201905060405180807f52616469616e74000000000000000000000000000000000000000000000000008152506007019050604051809103902060001916826040518082805190602001908083835b6020831015156107b0578051825260208201915060208101905060208303925061078b565b6001836020036101000a03801982511681845116808217855250505050505090500191505060405180910390206000191614156108095760018160040160006101000a81548160ff0219169083151502179055506108cf565b60405180807f44697265000000000000000000000000000000000000000000000000000000008152506004019050604051809103902060001916826040518082805190602001908083835b6020831015156108795780518252602082019150602081019050602083039250610854565b6001836020036101000a03801982511681845116808217855250505050505090500191505060405180910390206000191614156108ce5760018160040160016101000a81548160ff0219169083151502179055505b5b60018160040160026101000a81548160ff021916908315150217905550505050565b505050565b60088181548110151561090557fe5b90600052602060002090600902016000915090508060000154908060010154908060020154908060030154908060040160009054906101000a900460ff16908060040160019054906101000a900460ff16908060040160029054906101000a900460ff16908060040160039054906101000a900460ff16908060040160049054906101000a900460ff16905089565b61099c612580565b600082600060076000838152602001908152602001600020541415156109c157600080fd5b60011515600660003373ffffffffffffffffffffffffffffffffffffffff1673ffffffffffffffffffffffffffffffffffffffff16815260200190815260200160002060009054906101000a900460ff161515141515610a2057600080fd5b8383600001818152505060018360e00190151590811515815250506001836101000190151590811515815250506001600884908060018154018082558091505090600182039060005260206000209060090201600090919290919091506000820151816000015560208201518160010155604082015181600201556060820151816003015560808201518160040160006101000a81548160ff02191690831515021790555060a08201518160040160016101000a81548160ff02191690831515021790555060c08201518160040160026101000a81548160ff02191690831515021790555060e08201518160040160036101000a81548160ff0219169083151502179055506101008201518160040160046101000a81548160ff021916908315150217905550505003915081600760008681526020019081526020016000208190555050505050565b60608060011515600660003373ffffffffffffffffffffffffffffffffffffffff1673ffffffffffffffffffffffffffffffffffffffff16815260200190815260200160002060009054906101000a900460ff161515141515610bcb57600080fd5b3073ffffffffffffffffffffffffffffffffffffffff1631610c216040805190810160405280600381526020017f55524c0000000000000000000000000000000000000000000000000000000000815250611545565b1115610c95576040517f08c379a00000000000000000000000000000000000000000000000000000000081526004018080602001828103825260128152602001807f4e6f7420656e6f7567682062616c616e6365000000000000000000000000000081525060200191505060405180910390fd5b7f621c2856e3b87f81235f8ac8a22bbb40a0142961960710d00b2b6c380902b57e6040518080602001828103825260358152602001807f4f7261636c697a65207175657279207761732073656e742c207374616e64696e81526020017f6720627920666f722074686520616e737765722e2e000000000000000000000081525060400191505060405180910390a1610da2610d2f85611919565b610d94606060405190810160405280603a81526020017f6a736f6e2868747470733a2f2f626f756e74792d72756e652d6272696467652e81526020017f6865726f6b756170702e636f6d2f726573756c742f646f74612f000000000000815250611919565b61194790919063ffffffff16565b9150610dfc610de56040805190810160405280600881526020017f292e77696e6e6572000000000000000000000000000000000000000000000000815250611919565b610dee84611919565b61194790919063ffffffff16565b905082600981905550610e446040805190810160405280600381526020017f55524c0000000000000000000000000000000000000000000000000000000000815250826119c9565b5050505050565b6000809054906101000a900473ffffffffffffffffffffffffffffffffffffffff1673ffffffffffffffffffffffffffffffffffffffff163373ffffffffffffffffffffffffffffffffffffffff16141515610ea657600080fd5b6000809054906101000a900473ffffffffffffffffffffffffffffffffffffffff1673ffffffffffffffffffffffffffffffffffffffff167ff8df31144d9c2f0f6b59d69b8b98abd5459d07f2742c4df920b25aae33c6482060405160405180910390a260008060006101000a81548173ffffffffffffffffffffffffffffffffffffffff021916908373ffffffffffffffffffffffffffffffffffffffff160217905550565b6000809054906101000a900473ffffffffffffffffffffffffffffffffffffffff1681565b60011515600660003373ffffffffffffffffffffffffffffffffffffffff1673ffffffffffffffffffffffffffffffffffffffff16815260200190815260200160002060009054906101000a900460ff161515141515610fd157600080fd5b600660008273ffffffffffffffffffffffffffffffffffffffff1673ffffffffffffffffffffffffffffffffffffffff16815260200190815260200160002060009054906101000a900460ff1615600660008373ffffffffffffffffffffffffffffffffffffffff1673ffffffffffffffffffffffffffffffffffffffff16815260200190815260200160002060006101000a81548160ff02191690831515021790555050565b60066020528060005260406000206000915054906101000a900460ff1681565b600060011515600660003373ffffffffffffffffffffffffffffffffffffffff1673ffffffffffffffffffffffffffffffffffffffff16815260200190815260200160002060009054906101000a900460ff1615151415156110f957600080fd5b6008600760008481526020019081526020016000205481548110151561111b57fe5b9060005260206000209060090201905060008160040160036101000a81548160ff02191690831515021790555060008160040160046101000a81548160ff0219169083151502179055505050565b60095481565b6000600880549050905090565b6000809054906101000a900473ffffffffffffffffffffffffffffffffffffffff1673ffffffffffffffffffffffffffffffffffffffff163373ffffffffffffffffffffffffffffffffffffffff161415156111d757600080fd5b6111e081611f6f565b50565b600080600160009054906101000a900473ffffffffffffffffffffffffffffffffffffffff1673ffffffffffffffffffffffffffffffffffffffff16148061125557506000611253600160009054906101000a900473ffffffffffffffffffffffffffffffffffffffff16612069565b145b15611266576112646000612074565b505b600160009054906101000a900473ffffffffffffffffffffffffffffffffffffffff1673ffffffffffffffffffffffffffffffffffffffff166338cc48316040518163ffffffff167c0100000000000000000000000000000000000000000000000000000000028152600401602060405180830381600087803b1580156112ec57600080fd5b505af1158015611300573d6000803e3d6000fd5b505050506040513d602081101561131657600080fd5b810190808051906020019092919050505073ffffffffffffffffffffffffffffffffffffffff16600260009054906101000a900473ffffffffffffffffffffffffffffffffffffffff1673ffffffffffffffffffffffffffffffffffffffff1614151561147f57600160009054906101000a900473ffffffffffffffffffffffffffffffffffffffff1673ffffffffffffffffffffffffffffffffffffffff166338cc48316040518163ffffffff167c0100000000000000000000000000000000000000000000000000000000028152600401602060405180830381600087803b15801561140357600080fd5b505af1158015611417573d6000803e3d6000fd5b505050506040513d602081101561142d57600080fd5b8101908080519060200190929190505050600260006101000a81548173ffffffffffffffffffffffffffffffffffffffff021916908373ffffffffffffffffffffffffffffffffffffffff1602179055505b600260009054906101000a900473ffffffffffffffffffffffffffffffffffffffff1673ffffffffffffffffffffffffffffffffffffffff1663c281d19e6040518163ffffffff167c0100000000000000000000000000000000000000000000000000000000028152600401602060405180830381600087803b15801561150557600080fd5b505af1158015611519573d6000803e3d6000fd5b505050506040513d602081101561152f57600080fd5b8101908080519060200190929190505050905090565b600080600160009054906101000a900473ffffffffffffffffffffffffffffffffffffffff1673ffffffffffffffffffffffffffffffffffffffff1614806115b7575060006115b5600160009054906101000a900473ffffffffffffffffffffffffffffffffffffffff16612069565b145b156115c8576115c66000612074565b505b600160009054906101000a900473ffffffffffffffffffffffffffffffffffffffff1673ffffffffffffffffffffffffffffffffffffffff166338cc48316040518163ffffffff167c0100000000000000000000000000000000000000000000000000000000028152600401602060405180830381600087803b15801561164e57600080fd5b505af1158015611662573d6000803e3d6000fd5b505050506040513d602081101561167857600080fd5b810190808051906020019092919050505073ffffffffffffffffffffffffffffffffffffffff16600260009054906101000a900473ffffffffffffffffffffffffffffffffffffffff1673ffffffffffffffffffffffffffffffffffffffff161415156117e157600160009054906101000a900473ffffffffffffffffffffffffffffffffffffffff1673ffffffffffffffffffffffffffffffffffffffff166338cc48316040518163ffffffff167c0100000000000000000000000000000000000000000000000000000000028152600401602060405180830381600087803b15801561176557600080fd5b505af1158015611779573d6000803e3d6000fd5b505050506040513d602081101561178f57600080fd5b8101908080519060200190929190505050600260006101000a81548173ffffffffffffffffffffffffffffffffffffffff021916908373ffffffffffffffffffffffffffffffffffffffff1602179055505b600260009054906101000a900473ffffffffffffffffffffffffffffffffffffffff1673ffffffffffffffffffffffffffffffffffffffff1663524f3889836040518263ffffffff167c01000000000000000000000000000000000000000000000000000000000281526004018080602001828103825283818151815260200191508051906020019080838360005b8381101561188b578082015181840152602081019050611870565b50505050905090810190601f1680156118b85780820380516001836020036101000a031916815260200191505b5092505050602060405180830381600087803b1580156118d757600080fd5b505af11580156118eb573d6000803e3d6000fd5b505050506040513d602081101561190157600080fd5b81019080805190602001909291905050509050919050565b6119216125d7565b600060208301905060408051908101604052808451815260200182815250915050919050565b606080600083600001518560000151016040519080825280601f01601f1916602001820160405280156119895781602001602082028038833980820191505090505b5091506020820190506119a58186602001518760000151612085565b6119be8560000151820185602001518660000151612085565b819250505092915050565b6000806000600160009054906101000a900473ffffffffffffffffffffffffffffffffffffffff1673ffffffffffffffffffffffffffffffffffffffff161480611a3d57506000611a3b600160009054906101000a900473ffffffffffffffffffffffffffffffffffffffff16612069565b145b15611a4e57611a4c6000612074565b505b600160009054906101000a900473ffffffffffffffffffffffffffffffffffffffff1673ffffffffffffffffffffffffffffffffffffffff166338cc48316040518163ffffffff167c0100000000000000000000000000000000000000000000000000000000028152600401602060405180830381600087803b158015611ad457600080fd5b505af1158015611ae8573d6000803e3d6000fd5b505050506040513d6020811015611afe57600080fd5b810190808051906020019092919050505073ffffffffffffffffffffffffffffffffffffffff16600260009054906101000a900473ffffffffffffffffffffffffffffffffffffffff1673ffffffffffffffffffffffffffffffffffffffff16141515611c6757600160009054906101000a900473ffffffffffffffffffffffffffffffffffffffff1673ffffffffffffffffffffffffffffffffffffffff166338cc48316040518163ffffffff167c0100000000000000000000000000000000000000000000000000000000028152600401602060405180830381600087803b158015611beb57600080fd5b505af1158015611bff573d6000803e3d6000fd5b505050506040513d6020811015611c1557600080fd5b8101908080519060200190929190505050600260006101000a81548173ffffffffffffffffffffffffffffffffffffffff021916908373ffffffffffffffffffffffffffffffffffffffff1602179055505b600260009054906101000a900473ffffffffffffffffffffffffffffffffffffffff1673ffffffffffffffffffffffffffffffffffffffff1663524f3889856040518263ffffffff167c01000000000000000000000000000000000000000000000000000000000281526004018080602001828103825283818151815260200191508051906020019080838360005b83811015611d11578082015181840152602081019050611cf6565b50505050905090810190601f168015611d3e5780820380516001836020036101000a031916815260200191505b5092505050602060405180830381600087803b158015611d5d57600080fd5b505af1158015611d71573d6000803e3d6000fd5b505050506040513d6020811015611d8757600080fd5b8101908080519060200190929190505050905062030d403a02670de0b6b3a764000001811115611dbd5760006001029150611f68565b600260009054906101000a900473ffffffffffffffffffffffffffffffffffffffff1673ffffffffffffffffffffffffffffffffffffffff1663adf59f9982600087876040518563ffffffff167c0100000000000000000000000000000000000000000000000000000000028152600401808481526020018060200180602001838103835285818151815260200191508051906020019080838360005b83811015611e75578082015181840152602081019050611e5a565b50505050905090810190601f168015611ea25780820380516001836020036101000a031916815260200191505b50838103825284818151815260200191508051906020019080838360005b83811015611edb578082015181840152602081019050611ec0565b50505050905090810190601f168015611f085780820380516001836020036101000a031916815260200191505b50955050505050506020604051808303818588803b158015611f2957600080fd5b505af1158015611f3d573d6000803e3d6000fd5b50505050506040513d6020811015611f5457600080fd5b810190808051906020019092919050505091505b5092915050565b600073ffffffffffffffffffffffffffffffffffffffff168173ffffffffffffffffffffffffffffffffffffffff1614151515611fab57600080fd5b8073ffffffffffffffffffffffffffffffffffffffff166000809054906101000a900473ffffffffffffffffffffffffffffffffffffffff1673ffffffffffffffffffffffffffffffffffffffff167f8be0079c531659141344cd1fd0a4f28419497f9722a3daafe3b4186f6b6457e060405160405180910390a3806000806101000a81548173ffffffffffffffffffffffffffffffffffffffff021916908373ffffffffffffffffffffffffffffffffffffffff16021790555050565b6000813b9050919050565b600061207e6120d0565b9050919050565b60005b6020821015156120ad5782518452602084019350602083019250602082039150612088565b6001826020036101000a0390508019835116818551168181178652505050505050565b6000806120f0731d3b2638a7cc9f2cb3d298a3da7a90b67e5506ed612069565b111561219257731d3b2638a7cc9f2cb3d298a3da7a90b67e5506ed600160006101000a81548173ffffffffffffffffffffffffffffffffffffffff021916908373ffffffffffffffffffffffffffffffffffffffff1602179055506121896040805190810160405280600b81526020017f6574685f6d61696e6e6574000000000000000000000000000000000000000000815250612566565b60019050612563565b60006121b173c03a2615d5efaf5f49f60b7bb6583eaec212fdf1612069565b11156122535773c03a2615d5efaf5f49f60b7bb6583eaec212fdf1600160006101000a81548173ffffffffffffffffffffffffffffffffffffffff021916908373ffffffffffffffffffffffffffffffffffffffff16021790555061224a6040805190810160405280600c81526020017f6574685f726f707374656e330000000000000000000000000000000000000000815250612566565b60019050612563565b600061227273b7a07bcf2ba2f2703b24c0691b5278999c59ac7e612069565b11156123145773b7a07bcf2ba2f2703b24c0691b5278999c59ac7e600160006101000a81548173ffffffffffffffffffffffffffffffffffffffff021916908373ffffffffffffffffffffffffffffffffffffffff16021790555061230b6040805190810160405280600981526020017f6574685f6b6f76616e0000000000000000000000000000000000000000000000815250612566565b60019050612563565b600061233373146500cfd35b22e4a392fe0adc06de1a1368ed48612069565b11156123d55773146500cfd35b22e4a392fe0adc06de1a1368ed48600160006101000a81548173ffffffffffffffffffffffffffffffffffffffff021916908373ffffffffffffffffffffffffffffffffffffffff1602179055506123cc6040805190810160405280600b81526020017f6574685f72696e6b656279000000000000000000000000000000000000000000815250612566565b60019050612563565b60006123f4736f485c8bf6fc43ea212e93bbf8ce046c7f1cb475612069565b111561245857736f485c8bf6fc43ea212e93bbf8ce046c7f1cb475600160006101000a81548173ffffffffffffffffffffffffffffffffffffffff021916908373ffffffffffffffffffffffffffffffffffffffff16021790555060019050612563565b60006124777320e12a1f859b3feae5fb2a0a32c18f5a65555bbf612069565b11156124db577320e12a1f859b3feae5fb2a0a32c18f5a65555bbf600160006101000a81548173ffffffffffffffffffffffffffffffffffffffff021916908373ffffffffffffffffffffffffffffffffffffffff16021790555060019050612563565b60006124fa7351efaf4c8b3c9afbd5ab9f4bbc82784ab6ef8faa612069565b111561255e577351efaf4c8b3c9afbd5ab9f4bbc82784ab6ef8faa600160006101000a81548173ffffffffffffffffffffffffffffffffffffffff021916908373ffffffffffffffffffffffffffffffffffffffff16021790555060019050612563565b600090505b90565b806003908051906020019061257c9291906125f1565b5050565b61012060405190810160405280600081526020016000815260200160008152602001600081526020016000151581526020016000151581526020016000151581526020016000151581526020016000151581525090565b604080519081016040528060008152602001600081525090565b828054600181600116156101000203166002900490600052602060002090601f016020900481019282601f1061263257805160ff1916838001178555612660565b82800160010185558215612660579182015b8281111561265f578251825591602001919060010190612644565b5b50905061266d9190612671565b5090565b61269391905b8082111561268f576000816000905550600101612677565b5090565b905600a165627a7a72305820453857dbe99e9f74e5a34325c0ee7c3db4a6c0a29d7129b83bd3f635ebc30ffa0029",
  "source": "pragma solidity ^0.4.24;\nimport \"openzeppelin-solidity/contracts/ownership/Ownable.sol\";\nimport \"installed_contracts/oraclize-api/contracts/usingOraclize.sol\";\nimport \"./strings.sol\";\n\ncontract MatchManager is Ownable, usingOraclize {\n  event LogNewOraclizeQuery(string log);\n  using strings for *;\n  \n  struct Match {\n        uint matchId;\n        uint poolPrice;\n        uint radiantBets;\n        uint direBets;\n        bool radiantWin;\n        bool direWin;\n        bool withdrawable;\n        bool bettable;\n        bool refundable;\n        mapping(address => uint) betsOnRadiant;\n        mapping(address => uint) betsOnDire;\n        mapping(address => bool) hasBet;\n        mapping(address => bool) winningsWithdraw;\n    }\n    \n    mapping(address => bool) public addressIsAdmin;\n    mapping(uint => uint) public matchIdToId;\n    Match[] public matches;\n    uint public selectedMatchId;\n    \n    constructor() payable public {\n        // testing purposes\n        OAR = OraclizeAddrResolverI(0x6f485C8BF6fc43eA212E93BBF8ce046C7f1cb475);\n        addressIsAdmin[msg.sender] = true;\n    }\n    \n    modifier matchNotExisting(uint matchId) {\n        require(matchIdToId[matchId] == 0);\n        _;\n    }\n    \n    modifier onlyAdmin() {\n        require(addressIsAdmin[msg.sender] == true);\n        _;    \n    }\n\n    modifier matchIsNotFinish(uint _matchId) {\n        Match memory selectedMatch = matches[matchIdToId[_matchId]];\n        require(selectedMatch.radiantWin == false && selectedMatch.direWin == false);\n        _;\n    }\n    \n    modifier matchIsFinish(uint _matchId) {\n        Match memory selectedMatch = matches[matchIdToId[_matchId]];\n        require(selectedMatch.radiantWin == true || selectedMatch.direWin == true);\n        _;\n    }\n\n    modifier matchNotStarted(uint _matchId) {\n        Match memory selectedMatch = matches[matchIdToId[_matchId]];\n        require(selectedMatch.bettable == true);\n        require(selectedMatch.refundable == true);\n        _;\n    }\n    \n    modifier canBeBetted(uint _matchId, address _address) {\n        Match storage selectedMatch = matches[matchIdToId[_matchId]];\n        require(selectedMatch.hasBet[_address] == false);\n        _;\n    }\n    \n    modifier hasBetted(uint _matchId,address _address) {\n        Match storage selectedMatch = matches[matchIdToId[_matchId]];\n        require(selectedMatch.hasBet[_address] == true);\n        _;\n    }\n    \n     modifier canBeWithdraw(uint _matchId, address _address) {\n        Match storage selectedMatch = matches[matchIdToId[_matchId]];\n        require(selectedMatch.winningsWithdraw[_address] == false);\n        _;\n    }\n    \n    function matchesNumber() public view returns (uint) {\n        return matches.length;\n    }\n\n    function changeRole(address _address) onlyAdmin public {\n        addressIsAdmin[_address] = !addressIsAdmin[_address];\n    }\n    \n    function addMatch\n    (\n        uint _matchId\n    ) \n        public\n        matchNotExisting(_matchId)\n        onlyAdmin\n    {\n        Match memory currentMatch;\n        currentMatch.matchId = _matchId;\n        currentMatch.bettable = true;\n        currentMatch.refundable = true;\n        \n        uint id = matches.push(currentMatch) - 1;\n        matchIdToId[_matchId] = id;\n    }\n    \n    function startMatch(uint _matchId) public onlyAdmin {\n        Match storage selectedMatch = matches[matchIdToId[_matchId]];\n        selectedMatch.bettable = false;\n        selectedMatch.refundable = false;\n    }\n    \n    function endMatch(uint _matchId) public onlyAdmin {\n        Match storage selectedMatch = matches[matchIdToId[_matchId]];\n        selectedMatch.withdrawable = true;\n    }\n    \n    function getMatchWinner(string _matchIdString, uint _matchIdUint) public payable onlyAdmin {\n        // require()\n        if (oraclize_getPrice(\"URL\") > address(this).balance) {\n            revert(\"Not enough balance\");\n            emit LogNewOraclizeQuery(\"Oraclize query was NOT sent, please add some ETH to cover for the query fee\");\n        } else {\n            emit LogNewOraclizeQuery(\"Oraclize query was sent, standing by for the answer..\");\n            string memory query = \"json(https://bounty-rune-bridge.herokuapp.com/result/dota/\".toSlice().concat(_matchIdString.toSlice());\n            string memory finalQuery = query.toSlice().concat(\").winner\".toSlice());\n            selectedMatchId = _matchIdUint;\n            oraclize_query(\"URL\", finalQuery);\n        }\n    }\n    \n    function __callback(bytes32 myid, string result) {\n        require(msg.sender == oraclize_cbAddress());\n        require(keccak256(result) != keccak256(\"\"));\n         Match storage selectedMatch = matches[matchIdToId[selectedMatchId]];\n        if(keccak256(result) == keccak256('Radiant')) {\n            selectedMatch.radiantWin = true;\n        } else if (keccak256(result) == keccak256('Dire')){\n            selectedMatch.direWin = true;\n        }\n        selectedMatch.withdrawable = true;\n  }\n\n}\n\n\n",
  "sourcePath": "/home/clippe/Code/KingsLand/DApp_Project/BountyRune-Server/contracts/MatchManager.sol",
  "compiler": {
    "name": "solc",
    "version": "0.4.24+commit.e67f0147.Emscripten.clang"
  },
  "schemaVersion": "2.0.1",
  "updatedAt": "2018-09-28T10:55:05.485Z"
}